{
  "contractName": "PolkaBridgeNFT",
  "abi": [
    {
      "inputs": [
        {
          "internalType": "string",
          "name": "_uri",
          "type": "string"
        }
      ],
      "stateMutability": "nonpayable",
      "type": "constructor"
    },
    {
      "anonymous": false,
      "inputs": [
        {
          "indexed": true,
          "internalType": "address",
          "name": "account",
          "type": "address"
        },
        {
          "indexed": true,
          "internalType": "address",
          "name": "operator",
          "type": "address"
        },
        {
          "indexed": false,
          "internalType": "bool",
          "name": "approved",
          "type": "bool"
        }
      ],
      "name": "ApprovalForAll",
      "type": "event"
    },
    {
      "anonymous": false,
      "inputs": [
        {
          "indexed": true,
          "internalType": "address",
          "name": "previousOwner",
          "type": "address"
        },
        {
          "indexed": true,
          "internalType": "address",
          "name": "newOwner",
          "type": "address"
        }
      ],
      "name": "OwnershipTransferred",
      "type": "event"
    },
    {
      "anonymous": false,
      "inputs": [
        {
          "indexed": true,
          "internalType": "address",
          "name": "operator",
          "type": "address"
        },
        {
          "indexed": true,
          "internalType": "address",
          "name": "from",
          "type": "address"
        },
        {
          "indexed": true,
          "internalType": "address",
          "name": "to",
          "type": "address"
        },
        {
          "indexed": false,
          "internalType": "uint256[]",
          "name": "ids",
          "type": "uint256[]"
        },
        {
          "indexed": false,
          "internalType": "uint256[]",
          "name": "values",
          "type": "uint256[]"
        }
      ],
      "name": "TransferBatch",
      "type": "event"
    },
    {
      "anonymous": false,
      "inputs": [
        {
          "indexed": true,
          "internalType": "address",
          "name": "operator",
          "type": "address"
        },
        {
          "indexed": true,
          "internalType": "address",
          "name": "from",
          "type": "address"
        },
        {
          "indexed": true,
          "internalType": "address",
          "name": "to",
          "type": "address"
        },
        {
          "indexed": false,
          "internalType": "uint256",
          "name": "id",
          "type": "uint256"
        },
        {
          "indexed": false,
          "internalType": "uint256",
          "name": "value",
          "type": "uint256"
        }
      ],
      "name": "TransferSingle",
      "type": "event"
    },
    {
      "anonymous": false,
      "inputs": [
        {
          "indexed": false,
          "internalType": "string",
          "name": "value",
          "type": "string"
        },
        {
          "indexed": true,
          "internalType": "uint256",
          "name": "id",
          "type": "uint256"
        }
      ],
      "name": "URI",
      "type": "event"
    },
    {
      "inputs": [
        {
          "internalType": "address",
          "name": "account",
          "type": "address"
        },
        {
          "internalType": "uint256",
          "name": "id",
          "type": "uint256"
        }
      ],
      "name": "balanceOf",
      "outputs": [
        {
          "internalType": "uint256",
          "name": "",
          "type": "uint256"
        }
      ],
      "stateMutability": "view",
      "type": "function",
      "constant": true
    },
    {
      "inputs": [
        {
          "internalType": "address[]",
          "name": "accounts",
          "type": "address[]"
        },
        {
          "internalType": "uint256[]",
          "name": "ids",
          "type": "uint256[]"
        }
      ],
      "name": "balanceOfBatch",
      "outputs": [
        {
          "internalType": "uint256[]",
          "name": "",
          "type": "uint256[]"
        }
      ],
      "stateMutability": "view",
      "type": "function",
      "constant": true
    },
    {
      "inputs": [
        {
          "internalType": "address",
          "name": "account",
          "type": "address"
        },
        {
          "internalType": "address",
          "name": "operator",
          "type": "address"
        }
      ],
      "name": "isApprovedForAll",
      "outputs": [
        {
          "internalType": "bool",
          "name": "",
          "type": "bool"
        }
      ],
      "stateMutability": "view",
      "type": "function",
      "constant": true
    },
    {
      "inputs": [],
      "name": "name",
      "outputs": [
        {
          "internalType": "string",
          "name": "",
          "type": "string"
        }
      ],
      "stateMutability": "view",
      "type": "function",
      "constant": true
    },
    {
      "inputs": [],
      "name": "owner",
      "outputs": [
        {
          "internalType": "address",
          "name": "",
          "type": "address"
        }
      ],
      "stateMutability": "view",
      "type": "function",
      "constant": true
    },
    {
      "inputs": [],
      "name": "renounceOwnership",
      "outputs": [],
      "stateMutability": "nonpayable",
      "type": "function"
    },
    {
      "inputs": [
        {
          "internalType": "address",
          "name": "from",
          "type": "address"
        },
        {
          "internalType": "address",
          "name": "to",
          "type": "address"
        },
        {
          "internalType": "uint256[]",
          "name": "ids",
          "type": "uint256[]"
        },
        {
          "internalType": "uint256[]",
          "name": "amounts",
          "type": "uint256[]"
        },
        {
          "internalType": "bytes",
          "name": "data",
          "type": "bytes"
        }
      ],
      "name": "safeBatchTransferFrom",
      "outputs": [],
      "stateMutability": "nonpayable",
      "type": "function"
    },
    {
      "inputs": [
        {
          "internalType": "address",
          "name": "from",
          "type": "address"
        },
        {
          "internalType": "address",
          "name": "to",
          "type": "address"
        },
        {
          "internalType": "uint256",
          "name": "id",
          "type": "uint256"
        },
        {
          "internalType": "uint256",
          "name": "amount",
          "type": "uint256"
        },
        {
          "internalType": "bytes",
          "name": "data",
          "type": "bytes"
        }
      ],
      "name": "safeTransferFrom",
      "outputs": [],
      "stateMutability": "nonpayable",
      "type": "function"
    },
    {
      "inputs": [
        {
          "internalType": "address",
          "name": "operator",
          "type": "address"
        },
        {
          "internalType": "bool",
          "name": "approved",
          "type": "bool"
        }
      ],
      "name": "setApprovalForAll",
      "outputs": [],
      "stateMutability": "nonpayable",
      "type": "function"
    },
    {
      "inputs": [
        {
          "internalType": "bytes4",
          "name": "interfaceId",
          "type": "bytes4"
        }
      ],
      "name": "supportsInterface",
      "outputs": [
        {
          "internalType": "bool",
          "name": "",
          "type": "bool"
        }
      ],
      "stateMutability": "view",
      "type": "function",
      "constant": true
    },
    {
      "inputs": [],
      "name": "symbol",
      "outputs": [
        {
          "internalType": "string",
          "name": "",
          "type": "string"
        }
      ],
      "stateMutability": "view",
      "type": "function",
      "constant": true
    },
    {
      "inputs": [
        {
          "internalType": "address",
          "name": "newOwner",
          "type": "address"
        }
      ],
      "name": "transferOwnership",
      "outputs": [],
      "stateMutability": "nonpayable",
      "type": "function"
    },
    {
      "inputs": [
        {
          "internalType": "uint256",
          "name": "",
          "type": "uint256"
        }
      ],
      "name": "uri",
      "outputs": [
        {
          "internalType": "string",
          "name": "",
          "type": "string"
        }
      ],
      "stateMutability": "view",
      "type": "function",
      "constant": true
    },
    {
      "inputs": [
        {
          "internalType": "string",
          "name": "newURI",
          "type": "string"
        },
        {
          "internalType": "uint256",
          "name": "id",
          "type": "uint256"
        }
      ],
      "name": "setURI",
      "outputs": [],
      "stateMutability": "nonpayable",
      "type": "function"
    },
    {
      "inputs": [
        {
          "internalType": "address",
          "name": "recipient_",
          "type": "address"
        },
        {
          "internalType": "uint256",
          "name": "id_",
          "type": "uint256"
        },
        {
          "internalType": "uint256",
          "name": "amount_",
          "type": "uint256"
        }
      ],
      "name": "mintNFT",
      "outputs": [],
      "stateMutability": "nonpayable",
      "type": "function"
    },
    {
      "inputs": [
        {
          "internalType": "address",
          "name": "recipient_",
          "type": "address"
        },
        {
          "internalType": "uint256[]",
          "name": "ids_",
          "type": "uint256[]"
        },
        {
          "internalType": "uint256[]",
          "name": "amounts_",
          "type": "uint256[]"
        }
      ],
      "name": "multiMintNFT",
      "outputs": [],
      "stateMutability": "nonpayable",
      "type": "function"
    }
  ],
  "bytecode": "0x60c0604052600f60808190526e141bdb1ad8509c9a5919d948139195608a1b60a090815262000032916004919062000135565b506040805180820190915260068082526514109493919560d21b6020909201918252620000629160059162000135565b503480156200007057600080fd5b50604051620020b6380380620020b68339810160408190526200009391620001db565b806200009f81620000c6565b50620000b4620000ae620000df565b620000e3565b620000bf81620000c6565b50620002fd565b8051620000db90600290602084019062000135565b5050565b3390565b600380546001600160a01b038381166001600160a01b0319831681179093556040519116919082907f8be0079c531659141344cd1fd0a4f28419497f9722a3daafe3b4186f6b6457e090600090a35050565b8280546200014390620002aa565b90600052602060002090601f016020900481019282620001675760008555620001b2565b82601f106200018257805160ff1916838001178555620001b2565b82800160010185558215620001b2579182015b82811115620001b257825182559160200191906001019062000195565b50620001c0929150620001c4565b5090565b5b80821115620001c05760008155600101620001c5565b60006020808385031215620001ee578182fd5b82516001600160401b038082111562000205578384fd5b818501915085601f83011262000219578384fd5b8151818111156200022e576200022e620002e7565b604051601f8201601f1916810185018381118282101715620002545762000254620002e7565b60405281815283820185018810156200026b578586fd5b8592505b818310156200028e57838301850151818401860152918401916200026f565b818311156200029f57858583830101525b979650505050505050565b600281046001821680620002bf57607f821691505b60208210811415620002e157634e487b7160e01b600052602260045260246000fd5b50919050565b634e487b7160e01b600052604160045260246000fd5b611da9806200030d6000396000f3fe608060405234801561001057600080fd5b50600436106100ff5760003560e01c806367db3b8f11610097578063a22cb46511610066578063a22cb46514610208578063e985e9c51461021b578063f242432a1461022e578063f2fde38b14610241576100ff565b806367db3b8f146101d0578063715018a6146101e35780638da5cb5b146101eb57806395d89b4114610200576100ff565b80630e89341c116100d35780630e89341c146101775780632eb2c2d61461018a5780634e1273f41461019d5780635a9d10a2146101bd576100ff565b8062fdd58e1461010457806301ffc9a71461012d57806306fdde031461014d578063072a8e2b14610162575b600080fd5b6101176101123660046114b2565b610254565b6040516101249190611bb3565b60405180910390f35b61014061013b3660046115cb565b6102ab565b60405161012491906117ee565b6101556102f3565b60405161012491906117f9565b610175610170366004611407565b610381565b005b610155610185366004611659565b6103e0565b6101756101983660046112fe565b610474565b6101b06101ab36600461150d565b6104d2565b60405161012491906117ad565b6101756101cb3660046114db565b6105f2565b6101756101de366004611603565b61064c565b6101756106d0565b6101f361071b565b60405161012491906116f6565b61015561072b565b610175610216366004611478565b610738565b6101406102293660046112cc565b61074a565b61017561023c3660046113a4565b610778565b61017561024f3660046112b2565b6107cf565b60006001600160a01b0383166102855760405162461bcd60e51b815260040161027c906118a8565b60405180910390fd5b506000908152602081815260408083206001600160a01b03949094168352929052205490565b60006001600160e01b03198216636cdb3d1360e11b14806102dc57506001600160e01b031982166303a24d0760e21b145b806102eb57506102eb82610840565b90505b919050565b6004805461030090611c30565b80601f016020809104026020016040519081016040528092919081815260200182805461032c90611c30565b80156103795780601f1061034e57610100808354040283529160200191610379565b820191906000526020600020905b81548152906001019060200180831161035c57829003601f168201915b505050505081565b610389610859565b6001600160a01b031661039a61071b565b6001600160a01b0316146103c05760405162461bcd60e51b815260040161027c90611a63565b6103db8383836040518060200160405280600081525061085d565b505050565b6060600280546103ef90611c30565b80601f016020809104026020016040519081016040528092919081815260200182805461041b90611c30565b80156104685780601f1061043d57610100808354040283529160200191610468565b820191906000526020600020905b81548152906001019060200180831161044b57829003601f168201915b50505050509050919050565b61047c610859565b6001600160a01b0316856001600160a01b031614806104a257506104a285610229610859565b6104be5760405162461bcd60e51b815260040161027c906119c7565b6104cb85858585856109de565b5050505050565b606081518351146104f55760405162461bcd60e51b815260040161027c90611ae1565b6000835167ffffffffffffffff81111561051f57634e487b7160e01b600052604160045260246000fd5b604051908082528060200260200182016040528015610548578160200160208202803683370190505b50905060005b84518110156105ea576105af85828151811061057a57634e487b7160e01b600052603260045260246000fd5b60200260200101518583815181106105a257634e487b7160e01b600052603260045260246000fd5b6020026020010151610254565b8282815181106105cf57634e487b7160e01b600052603260045260246000fd5b60209081029190910101526105e381611c6b565b905061054e565b509392505050565b6105fa610859565b6001600160a01b031661060b61071b565b6001600160a01b0316146106315760405162461bcd60e51b815260040161027c90611a63565b6103db83838360405180602001604052806000815250610baf565b610654610859565b6001600160a01b031661066561071b565b6001600160a01b03161461068b5760405162461bcd60e51b815260040161027c90611a63565b807f6bb7ff708619ba0610cba295a58592e0451dee2622938c8755667688daf3529b836040516106bb91906117f9565b60405180910390a26106cc82610c9e565b5050565b6106d8610859565b6001600160a01b03166106e961071b565b6001600160a01b03161461070f5760405162461bcd60e51b815260040161027c90611a63565b6107196000610cb1565b565b6003546001600160a01b03165b90565b6005805461030090611c30565b6106cc610743610859565b8383610d03565b6001600160a01b03918216600090815260016020908152604080832093909416825291909152205460ff1690565b610780610859565b6001600160a01b0316856001600160a01b031614806107a657506107a685610229610859565b6107c25760405162461bcd60e51b815260040161027c90611939565b6104cb8585858585610da6565b6107d7610859565b6001600160a01b03166107e861071b565b6001600160a01b03161461080e5760405162461bcd60e51b815260040161027c90611a63565b6001600160a01b0381166108345760405162461bcd60e51b815260040161027c906118f3565b61083d81610cb1565b50565b6001600160e01b031981166301ffc9a760e01b14919050565b3390565b6001600160a01b0384166108835760405162461bcd60e51b815260040161027c90611b72565b81518351146108a45760405162461bcd60e51b815260040161027c90611b2a565b60006108ae610859565b90506108bf81600087878787610ba7565b60005b8451811015610976578381815181106108eb57634e487b7160e01b600052603260045260246000fd5b602002602001015160008087848151811061091657634e487b7160e01b600052603260045260246000fd5b602002602001015181526020019081526020016000206000886001600160a01b03166001600160a01b03168152602001908152602001600020600082825461095e9190611c18565b9091555081905061096e81611c6b565b9150506108c2565b50846001600160a01b031660006001600160a01b0316826001600160a01b03167f4a39dc06d4c0dbc64b70af90fd698a233a518aa5d07e595d983b8c0526c8f7fb87876040516109c79291906117c0565b60405180910390a46104cb81600087878787610eda565b81518351146109ff5760405162461bcd60e51b815260040161027c90611b2a565b6001600160a01b038416610a255760405162461bcd60e51b815260040161027c90611982565b6000610a2f610859565b9050610a3f818787878787610ba7565b60005b8451811015610b41576000858281518110610a6d57634e487b7160e01b600052603260045260246000fd5b602002602001015190506000858381518110610a9957634e487b7160e01b600052603260045260246000fd5b602090810291909101810151600084815280835260408082206001600160a01b038e168352909352919091205490915081811015610ae95760405162461bcd60e51b815260040161027c90611a19565b6000838152602081815260408083206001600160a01b038e8116855292528083208585039055908b16825281208054849290610b26908490611c18565b9250508190555050505080610b3a90611c6b565b9050610a42565b50846001600160a01b0316866001600160a01b0316826001600160a01b03167f4a39dc06d4c0dbc64b70af90fd698a233a518aa5d07e595d983b8c0526c8f7fb8787604051610b919291906117c0565b60405180910390a4610ba7818787878787610eda565b505050505050565b6001600160a01b038416610bd55760405162461bcd60e51b815260040161027c90611b72565b6000610bdf610859565b9050610c0081600087610bf188610fe8565b610bfa88610fe8565b87610ba7565b6000848152602081815260408083206001600160a01b038916845290915281208054859290610c30908490611c18565b92505081905550846001600160a01b031660006001600160a01b0316826001600160a01b03167fc3d58168c5ae7397731d063d5bbf3d657854427343f4c083240f7aacaa2d0f628787604051610c87929190611bbc565b60405180910390a46104cb81600087878787611041565b80516106cc906002906020840190611118565b600380546001600160a01b038381166001600160a01b0319831681179093556040519116919082907f8be0079c531659141344cd1fd0a4f28419497f9722a3daafe3b4186f6b6457e090600090a35050565b816001600160a01b0316836001600160a01b03161415610d355760405162461bcd60e51b815260040161027c90611a98565b6001600160a01b0383811660008181526001602090815260408083209487168084529490915290819020805460ff1916851515179055517f17307eab39ab6107e8899845ad3d59bd9653f200f220920489ca2b5937696c3190610d999085906117ee565b60405180910390a3505050565b6001600160a01b038416610dcc5760405162461bcd60e51b815260040161027c90611982565b6000610dd6610859565b9050610de7818787610bf188610fe8565b6000848152602081815260408083206001600160a01b038a16845290915290205483811015610e285760405162461bcd60e51b815260040161027c90611a19565b6000858152602081815260408083206001600160a01b038b8116855292528083208785039055908816825281208054869290610e65908490611c18565b92505081905550856001600160a01b0316876001600160a01b0316836001600160a01b03167fc3d58168c5ae7397731d063d5bbf3d657854427343f4c083240f7aacaa2d0f628888604051610ebb929190611bbc565b60405180910390a4610ed1828888888888611041565b50505050505050565b610eec846001600160a01b0316611112565b15610ba75760405163bc197c8160e01b81526001600160a01b0385169063bc197c8190610f25908990899088908890889060040161170a565b602060405180830381600087803b158015610f3f57600080fd5b505af1925050508015610f6f575060408051601f3d908101601f19168201909252610f6c918101906115e7565b60015b610fb857610f7b611cb8565b80610f865750610fa0565b8060405162461bcd60e51b815260040161027c91906117f9565b60405162461bcd60e51b815260040161027c9061180c565b6001600160e01b0319811663bc197c8160e01b14610ed15760405162461bcd60e51b815260040161027c90611860565b6040805160018082528183019092526060916000919060208083019080368337019050509050828160008151811061103057634e487b7160e01b600052603260045260246000fd5b602090810291909101015292915050565b611053846001600160a01b0316611112565b15610ba75760405163f23a6e6160e01b81526001600160a01b0385169063f23a6e619061108c9089908990889088908890600401611768565b602060405180830381600087803b1580156110a657600080fd5b505af19250505080156110d6575060408051601f3d908101601f191682019092526110d3918101906115e7565b60015b6110e257610f7b611cb8565b6001600160e01b0319811663f23a6e6160e01b14610ed15760405162461bcd60e51b815260040161027c90611860565b3b151590565b82805461112490611c30565b90600052602060002090601f016020900481019282611146576000855561118c565b82601f1061115f57805160ff191683800117855561118c565b8280016001018555821561118c579182015b8281111561118c578251825591602001919060010190611171565b5061119892915061119c565b5090565b5b80821115611198576000815560010161119d565b600067ffffffffffffffff8311156111cb576111cb611c9c565b6111de601f8401601f1916602001611bca565b90508281528383830111156111f257600080fd5b828260208301376000602084830101529392505050565b80356001600160a01b03811681146102ee57600080fd5b600082601f830112611230578081fd5b8135602061124561124083611bf4565b611bca565b8281528181019085830183850287018401881015611261578586fd5b855b8581101561127f57813584529284019290840190600101611263565b5090979650505050505050565b600082601f83011261129c578081fd5b6112ab838335602085016111b1565b9392505050565b6000602082840312156112c3578081fd5b6112ab82611209565b600080604083850312156112de578081fd5b6112e783611209565b91506112f560208401611209565b90509250929050565b600080600080600060a08688031215611315578081fd5b61131e86611209565b945061132c60208701611209565b9350604086013567ffffffffffffffff80821115611348578283fd5b61135489838a01611220565b94506060880135915080821115611369578283fd5b61137589838a01611220565b9350608088013591508082111561138a578283fd5b506113978882890161128c565b9150509295509295909350565b600080600080600060a086880312156113bb578081fd5b6113c486611209565b94506113d260208701611209565b93506040860135925060608601359150608086013567ffffffffffffffff8111156113fb578182fd5b6113978882890161128c565b60008060006060848603121561141b578283fd5b61142484611209565b9250602084013567ffffffffffffffff80821115611440578384fd5b61144c87838801611220565b93506040860135915080821115611461578283fd5b5061146e86828701611220565b9150509250925092565b6000806040838503121561148a578182fd5b61149383611209565b9150602083013580151581146114a7578182fd5b809150509250929050565b600080604083850312156114c4578182fd5b6114cd83611209565b946020939093013593505050565b6000806000606084860312156114ef578081fd5b6114f884611209565b95602085013595506040909401359392505050565b6000806040838503121561151f578182fd5b823567ffffffffffffffff80821115611536578384fd5b818501915085601f830112611549578384fd5b8135602061155961124083611bf4565b82815281810190858301838502870184018b1015611575578889fd5b8896505b8487101561159e5761158a81611209565b835260019690960195918301918301611579565b50965050860135925050808211156115b4578283fd5b506115c185828601611220565b9150509250929050565b6000602082840312156115dc578081fd5b81356112ab81611d5d565b6000602082840312156115f8578081fd5b81516112ab81611d5d565b60008060408385031215611615578182fd5b823567ffffffffffffffff81111561162b578283fd5b8301601f8101851361163b578283fd5b61164a858235602084016111b1565b95602094909401359450505050565b60006020828403121561166a578081fd5b5035919050565b6000815180845260208085019450808401835b838110156116a057815187529582019590820190600101611684565b509495945050505050565b60008151808452815b818110156116d0576020818501810151868301820152016116b4565b818111156116e15782602083870101525b50601f01601f19169290920160200192915050565b6001600160a01b0391909116815260200190565b6001600160a01b0386811682528516602082015260a06040820181905260009061173690830186611671565b82810360608401526117488186611671565b9050828103608084015261175c81856116ab565b98975050505050505050565b6001600160a01b03868116825285166020820152604081018490526060810183905260a0608082018190526000906117a2908301846116ab565b979650505050505050565b6000602082526112ab6020830184611671565b6000604082526117d36040830185611671565b82810360208401526117e58185611671565b95945050505050565b901515815260200190565b6000602082526112ab60208301846116ab565b60208082526034908201527f455243313135353a207472616e7366657220746f206e6f6e20455243313135356040820152732932b1b2b4bb32b91034b6b83632b6b2b73a32b960611b606082015260800190565b60208082526028908201527f455243313135353a204552433131353552656365697665722072656a656374656040820152676420746f6b656e7360c01b606082015260800190565b6020808252602b908201527f455243313135353a2062616c616e636520717565727920666f7220746865207a60408201526a65726f206164647265737360a81b606082015260800190565b60208082526026908201527f4f776e61626c653a206e6577206f776e657220697320746865207a65726f206160408201526564647265737360d01b606082015260800190565b60208082526029908201527f455243313135353a2063616c6c6572206973206e6f74206f776e6572206e6f7260408201526808185c1c1c9bdd995960ba1b606082015260800190565b60208082526025908201527f455243313135353a207472616e7366657220746f20746865207a65726f206164604082015264647265737360d81b606082015260800190565b60208082526032908201527f455243313135353a207472616e736665722063616c6c6572206973206e6f74206040820152711bdddb995c881b9bdc88185c1c1c9bdd995960721b606082015260800190565b6020808252602a908201527f455243313135353a20696e73756666696369656e742062616c616e636520666f60408201526939103a3930b739b332b960b11b606082015260800190565b6020808252818101527f4f776e61626c653a2063616c6c6572206973206e6f7420746865206f776e6572604082015260600190565b60208082526029908201527f455243313135353a2073657474696e6720617070726f76616c20737461747573604082015268103337b91039b2b63360b91b606082015260800190565b60208082526029908201527f455243313135353a206163636f756e747320616e6420696473206c656e677468604082015268040dad2e6dac2e8c6d60bb1b606082015260800190565b60208082526028908201527f455243313135353a2069647320616e6420616d6f756e7473206c656e677468206040820152670dad2e6dac2e8c6d60c31b606082015260800190565b60208082526021908201527f455243313135353a206d696e7420746f20746865207a65726f206164647265736040820152607360f81b606082015260800190565b90815260200190565b918252602082015260400190565b60405181810167ffffffffffffffff81118282101715611bec57611bec611c9c565b604052919050565b600067ffffffffffffffff821115611c0e57611c0e611c9c565b5060209081020190565b60008219821115611c2b57611c2b611c86565b500190565b600281046001821680611c4457607f821691505b60208210811415611c6557634e487b7160e01b600052602260045260246000fd5b50919050565b6000600019821415611c7f57611c7f611c86565b5060010190565b634e487b7160e01b600052601160045260246000fd5b634e487b7160e01b600052604160045260246000fd5b60e01c90565b600060443d1015611cc857610728565b600481823e6308c379a0611cdc8251611cb2565b14611ce657610728565b6040513d600319016004823e80513d67ffffffffffffffff8160248401118184111715611d165750505050610728565b82840192508251915080821115611d305750505050610728565b503d83016020828401011115611d4857505050610728565b601f01601f1916810160200160405291505090565b6001600160e01b03198116811461083d57600080fdfea26469706673582212207903e738e095dda91bba69925049617bfa04adcd10c18792a356efd08fb5013964736f6c63430008000033",
  "immutableReferences": {},
  "source": "// SPDX-License-Identifier: MIT\r\npragma solidity ^0.8.0;\r\n\r\nimport \"@openzeppelin/contracts/token/ERC1155/ERC1155.sol\";\r\nimport \"@openzeppelin/contracts/utils/Strings.sol\";\r\nimport \"@openzeppelin/contracts/access/Ownable.sol\";\r\n\r\ncontract PolkaBridgeNFT is ERC1155, Ownable {\r\n    \r\n    string public name = \"PolkaBridge NFT\";\r\n    string public symbol = \"PBRNFT\";\r\n    constructor(string memory _uri) ERC1155(_uri) {\r\n        _setURI(_uri);\r\n    }\r\n\r\n    function setURI(string memory newURI, uint256 id) \r\n        public onlyOwner {\r\n        emit URI(newURI, id);\r\n        _setURI(newURI);\r\n    }\r\n\r\n    function mintNFT(address recipient_, uint256 id_, uint256 amount_)\r\n        public onlyOwner {    \r\n        _mint(recipient_, id_, amount_, '');\r\n    }\r\n\r\n    function multiMintNFT(address recipient_, uint256[] memory ids_, uint256[] memory amounts_)\r\n        public onlyOwner {\r\n        _mintBatch(recipient_, ids_, amounts_, '');\r\n    }\r\n}\r\n",
  "sourcePath": "C:\\Users\\Thanh Phi\\Desktop\\PolkaBridgeSolution\\polkabridge-ino\\INO\\contracts\\PolkaBridgeNFT.sol",
  "compiler": {
    "name": "solc",
    "version": "0.8.0+commit.c7dfd78e.Emscripten.clang"
  },
  "schemaVersion": "3.4.6",
  "updatedAt": "2022-04-02T05:59:57.017Z",
  "networkType": "ethereum",
  "devdoc": {
    "kind": "dev",
    "methods": {
      "balanceOf(address,uint256)": {
        "details": "See {IERC1155-balanceOf}. Requirements: - `account` cannot be the zero address."
      },
      "balanceOfBatch(address[],uint256[])": {
        "details": "See {IERC1155-balanceOfBatch}. Requirements: - `accounts` and `ids` must have the same length."
      },
      "isApprovedForAll(address,address)": {
        "details": "See {IERC1155-isApprovedForAll}."
      },
      "owner()": {
        "details": "Returns the address of the current owner."
      },
      "renounceOwnership()": {
        "details": "Leaves the contract without owner. It will not be possible to call `onlyOwner` functions anymore. Can only be called by the current owner. NOTE: Renouncing ownership will leave the contract without an owner, thereby removing any functionality that is only available to the owner."
      },
      "safeBatchTransferFrom(address,address,uint256[],uint256[],bytes)": {
        "details": "See {IERC1155-safeBatchTransferFrom}."
      },
      "safeTransferFrom(address,address,uint256,uint256,bytes)": {
        "details": "See {IERC1155-safeTransferFrom}."
      },
      "setApprovalForAll(address,bool)": {
        "details": "See {IERC1155-setApprovalForAll}."
      },
      "supportsInterface(bytes4)": {
        "details": "See {IERC165-supportsInterface}."
      },
      "transferOwnership(address)": {
        "details": "Transfers ownership of the contract to a new account (`newOwner`). Can only be called by the current owner."
      },
      "uri(uint256)": {
        "details": "See {IERC1155MetadataURI-uri}. This implementation returns the same URI for *all* token types. It relies on the token type ID substitution mechanism https://eips.ethereum.org/EIPS/eip-1155#metadata[defined in the EIP]. Clients calling this function must replace the `\\{id\\}` substring with the actual token type ID."
      }
    },
    "version": 1
  },
  "userdoc": {
    "kind": "user",
    "methods": {},
    "version": 1
  }
}