{
  "contractName": "PolkaBridgeNFT",
  "abi": [
    {
      "inputs": [
        {
          "internalType": "string",
          "name": "_uri",
          "type": "string"
        }
      ],
      "stateMutability": "nonpayable",
      "type": "constructor"
    },
    {
      "anonymous": false,
      "inputs": [
        {
          "indexed": true,
          "internalType": "address",
          "name": "account",
          "type": "address"
        },
        {
          "indexed": true,
          "internalType": "address",
          "name": "operator",
          "type": "address"
        },
        {
          "indexed": false,
          "internalType": "bool",
          "name": "approved",
          "type": "bool"
        }
      ],
      "name": "ApprovalForAll",
      "type": "event"
    },
    {
      "anonymous": false,
      "inputs": [
        {
          "indexed": true,
          "internalType": "address",
          "name": "previousOwner",
          "type": "address"
        },
        {
          "indexed": true,
          "internalType": "address",
          "name": "newOwner",
          "type": "address"
        }
      ],
      "name": "OwnershipTransferred",
      "type": "event"
    },
    {
      "anonymous": false,
      "inputs": [
        {
          "indexed": true,
          "internalType": "address",
          "name": "operator",
          "type": "address"
        },
        {
          "indexed": true,
          "internalType": "address",
          "name": "from",
          "type": "address"
        },
        {
          "indexed": true,
          "internalType": "address",
          "name": "to",
          "type": "address"
        },
        {
          "indexed": false,
          "internalType": "uint256[]",
          "name": "ids",
          "type": "uint256[]"
        },
        {
          "indexed": false,
          "internalType": "uint256[]",
          "name": "values",
          "type": "uint256[]"
        }
      ],
      "name": "TransferBatch",
      "type": "event"
    },
    {
      "anonymous": false,
      "inputs": [
        {
          "indexed": true,
          "internalType": "address",
          "name": "operator",
          "type": "address"
        },
        {
          "indexed": true,
          "internalType": "address",
          "name": "from",
          "type": "address"
        },
        {
          "indexed": true,
          "internalType": "address",
          "name": "to",
          "type": "address"
        },
        {
          "indexed": false,
          "internalType": "uint256",
          "name": "id",
          "type": "uint256"
        },
        {
          "indexed": false,
          "internalType": "uint256",
          "name": "value",
          "type": "uint256"
        }
      ],
      "name": "TransferSingle",
      "type": "event"
    },
    {
      "anonymous": false,
      "inputs": [
        {
          "indexed": false,
          "internalType": "string",
          "name": "value",
          "type": "string"
        },
        {
          "indexed": true,
          "internalType": "uint256",
          "name": "id",
          "type": "uint256"
        }
      ],
      "name": "URI",
      "type": "event"
    },
    {
      "inputs": [
        {
          "internalType": "address",
          "name": "account",
          "type": "address"
        },
        {
          "internalType": "uint256",
          "name": "id",
          "type": "uint256"
        }
      ],
      "name": "balanceOf",
      "outputs": [
        {
          "internalType": "uint256",
          "name": "",
          "type": "uint256"
        }
      ],
      "stateMutability": "view",
      "type": "function",
      "constant": true
    },
    {
      "inputs": [
        {
          "internalType": "address[]",
          "name": "accounts",
          "type": "address[]"
        },
        {
          "internalType": "uint256[]",
          "name": "ids",
          "type": "uint256[]"
        }
      ],
      "name": "balanceOfBatch",
      "outputs": [
        {
          "internalType": "uint256[]",
          "name": "",
          "type": "uint256[]"
        }
      ],
      "stateMutability": "view",
      "type": "function",
      "constant": true
    },
    {
      "inputs": [
        {
          "internalType": "address",
          "name": "account",
          "type": "address"
        },
        {
          "internalType": "address",
          "name": "operator",
          "type": "address"
        }
      ],
      "name": "isApprovedForAll",
      "outputs": [
        {
          "internalType": "bool",
          "name": "",
          "type": "bool"
        }
      ],
      "stateMutability": "view",
      "type": "function",
      "constant": true
    },
    {
      "inputs": [],
      "name": "owner",
      "outputs": [
        {
          "internalType": "address",
          "name": "",
          "type": "address"
        }
      ],
      "stateMutability": "view",
      "type": "function",
      "constant": true
    },
    {
      "inputs": [],
      "name": "renounceOwnership",
      "outputs": [],
      "stateMutability": "nonpayable",
      "type": "function"
    },
    {
      "inputs": [
        {
          "internalType": "address",
          "name": "from",
          "type": "address"
        },
        {
          "internalType": "address",
          "name": "to",
          "type": "address"
        },
        {
          "internalType": "uint256[]",
          "name": "ids",
          "type": "uint256[]"
        },
        {
          "internalType": "uint256[]",
          "name": "amounts",
          "type": "uint256[]"
        },
        {
          "internalType": "bytes",
          "name": "data",
          "type": "bytes"
        }
      ],
      "name": "safeBatchTransferFrom",
      "outputs": [],
      "stateMutability": "nonpayable",
      "type": "function"
    },
    {
      "inputs": [
        {
          "internalType": "address",
          "name": "from",
          "type": "address"
        },
        {
          "internalType": "address",
          "name": "to",
          "type": "address"
        },
        {
          "internalType": "uint256",
          "name": "id",
          "type": "uint256"
        },
        {
          "internalType": "uint256",
          "name": "amount",
          "type": "uint256"
        },
        {
          "internalType": "bytes",
          "name": "data",
          "type": "bytes"
        }
      ],
      "name": "safeTransferFrom",
      "outputs": [],
      "stateMutability": "nonpayable",
      "type": "function"
    },
    {
      "inputs": [
        {
          "internalType": "address",
          "name": "operator",
          "type": "address"
        },
        {
          "internalType": "bool",
          "name": "approved",
          "type": "bool"
        }
      ],
      "name": "setApprovalForAll",
      "outputs": [],
      "stateMutability": "nonpayable",
      "type": "function"
    },
    {
      "inputs": [
        {
          "internalType": "bytes4",
          "name": "interfaceId",
          "type": "bytes4"
        }
      ],
      "name": "supportsInterface",
      "outputs": [
        {
          "internalType": "bool",
          "name": "",
          "type": "bool"
        }
      ],
      "stateMutability": "view",
      "type": "function",
      "constant": true
    },
    {
      "inputs": [
        {
          "internalType": "address",
          "name": "newOwner",
          "type": "address"
        }
      ],
      "name": "transferOwnership",
      "outputs": [],
      "stateMutability": "nonpayable",
      "type": "function"
    },
    {
      "inputs": [
        {
          "internalType": "uint256",
          "name": "",
          "type": "uint256"
        }
      ],
      "name": "uri",
      "outputs": [
        {
          "internalType": "string",
          "name": "",
          "type": "string"
        }
      ],
      "stateMutability": "view",
      "type": "function",
      "constant": true
    },
    {
      "inputs": [
        {
          "internalType": "string",
          "name": "uri_",
          "type": "string"
        }
      ],
      "name": "setURI",
      "outputs": [],
      "stateMutability": "nonpayable",
      "type": "function"
    },
    {
      "inputs": [
        {
          "internalType": "address",
          "name": "recipient_",
          "type": "address"
        },
        {
          "internalType": "uint256",
          "name": "id_",
          "type": "uint256"
        },
        {
          "internalType": "uint256",
          "name": "amount_",
          "type": "uint256"
        }
      ],
      "name": "mintNFT",
      "outputs": [],
      "stateMutability": "nonpayable",
      "type": "function"
    },
    {
      "inputs": [
        {
          "internalType": "address",
          "name": "recipient_",
          "type": "address"
        },
        {
          "internalType": "uint256[]",
          "name": "ids_",
          "type": "uint256[]"
        },
        {
          "internalType": "uint256[]",
          "name": "amounts_",
          "type": "uint256[]"
        }
      ],
      "name": "multiMintNFT",
      "outputs": [],
      "stateMutability": "nonpayable",
      "type": "function"
    }
  ],
  "bytecode": "0x60806040523480156200001157600080fd5b5060405162001f5638038062001f5683398101604081905262000034916200017c565b80620000408162000067565b50620000556200004f62000080565b62000084565b620000608162000067565b506200029e565b80516200007c906002906020840190620000d6565b5050565b3390565b600380546001600160a01b038381166001600160a01b0319831681179093556040519116919082907f8be0079c531659141344cd1fd0a4f28419497f9722a3daafe3b4186f6b6457e090600090a35050565b828054620000e4906200024b565b90600052602060002090601f01602090048101928262000108576000855562000153565b82601f106200012357805160ff191683800117855562000153565b8280016001018555821562000153579182015b828111156200015357825182559160200191906001019062000136565b506200016192915062000165565b5090565b5b8082111562000161576000815560010162000166565b600060208083850312156200018f578182fd5b82516001600160401b0380821115620001a6578384fd5b818501915085601f830112620001ba578384fd5b815181811115620001cf57620001cf62000288565b604051601f8201601f1916810185018381118282101715620001f557620001f562000288565b60405281815283820185018810156200020c578586fd5b8592505b818310156200022f578383018501518184018601529184019162000210565b818311156200024057858583830101525b979650505050505050565b6002810460018216806200026057607f821691505b602082108114156200028257634e487b7160e01b600052602260045260246000fd5b50919050565b634e487b7160e01b600052604160045260246000fd5b611ca880620002ae6000396000f3fe608060405234801561001057600080fd5b50600436106100e95760003560e01c80635a9d10a21161008c578063a22cb46511610066578063a22cb465146101e2578063e985e9c5146101f5578063f242432a14610208578063f2fde38b1461021b576100e9565b80635a9d10a2146101b2578063715018a6146101c55780638da5cb5b146101cd576100e9565b8063072a8e2b116100c8578063072a8e2b1461014c5780630e89341c1461015f5780632eb2c2d61461017f5780634e1273f414610192576100e9565b8062fdd58e146100ee57806301ffc9a71461011757806302fe530514610137575b600080fd5b6101016100fc3660046113b9565b61022e565b60405161010e9190611ab2565b60405180910390f35b61012a6101253660046114d2565b610285565b60405161010e91906116ed565b61014a61014536600461150a565b6102cd565b005b61014a61015a36600461130e565b610318565b61017261016d366004611558565b610377565b60405161010e91906116f8565b61014a61018d366004611205565b61040b565b6101a56101a0366004611414565b610469565b60405161010e91906116ac565b61014a6101c03660046113e2565b610589565b61014a6105e3565b6101d561062e565b60405161010e91906115f5565b61014a6101f036600461137f565b61063e565b61012a6102033660046111d3565b610654565b61014a6102163660046112ab565b610682565b61014a6102293660046111b9565b6106d9565b60006001600160a01b03831661025f5760405162461bcd60e51b8152600401610256906117a7565b60405180910390fd5b506000908152602081815260408083206001600160a01b03949094168352929052205490565b60006001600160e01b03198216636cdb3d1360e11b14806102b657506001600160e01b031982166303a24d0760e21b145b806102c557506102c582610747565b90505b919050565b6102d5610760565b6001600160a01b03166102e661062e565b6001600160a01b03161461030c5760405162461bcd60e51b815260040161025690611962565b61031581610764565b50565b610320610760565b6001600160a01b031661033161062e565b6001600160a01b0316146103575760405162461bcd60e51b815260040161025690611962565b61037283838360405180602001604052806000815250610777565b505050565b60606002805461038690611b2f565b80601f01602080910402602001604051908101604052809291908181526020018280546103b290611b2f565b80156103ff5780601f106103d4576101008083540402835291602001916103ff565b820191906000526020600020905b8154815290600101906020018083116103e257829003601f168201915b50505050509050919050565b610413610760565b6001600160a01b0316856001600160a01b03161480610439575061043985610203610760565b6104555760405162461bcd60e51b8152600401610256906118c6565b61046285858585856108f8565b5050505050565b6060815183511461048c5760405162461bcd60e51b8152600401610256906119e0565b6000835167ffffffffffffffff8111156104b657634e487b7160e01b600052604160045260246000fd5b6040519080825280602002602001820160405280156104df578160200160208202803683370190505b50905060005b84518110156105815761054685828151811061051157634e487b7160e01b600052603260045260246000fd5b602002602001015185838151811061053957634e487b7160e01b600052603260045260246000fd5b602002602001015161022e565b82828151811061056657634e487b7160e01b600052603260045260246000fd5b602090810291909101015261057a81611b6a565b90506104e5565b509392505050565b610591610760565b6001600160a01b03166105a261062e565b6001600160a01b0316146105c85760405162461bcd60e51b815260040161025690611962565b61037283838360405180602001604052806000815250610ac9565b6105eb610760565b6001600160a01b03166105fc61062e565b6001600160a01b0316146106225760405162461bcd60e51b815260040161025690611962565b61062c6000610bb8565b565b6003546001600160a01b03165b90565b610650610649610760565b8383610c0a565b5050565b6001600160a01b03918216600090815260016020908152604080832093909416825291909152205460ff1690565b61068a610760565b6001600160a01b0316856001600160a01b031614806106b057506106b085610203610760565b6106cc5760405162461bcd60e51b815260040161025690611838565b6104628585858585610cad565b6106e1610760565b6001600160a01b03166106f261062e565b6001600160a01b0316146107185760405162461bcd60e51b815260040161025690611962565b6001600160a01b03811661073e5760405162461bcd60e51b8152600401610256906117f2565b61031581610bb8565b6001600160e01b031981166301ffc9a760e01b14919050565b3390565b805161065090600290602084019061101f565b6001600160a01b03841661079d5760405162461bcd60e51b815260040161025690611a71565b81518351146107be5760405162461bcd60e51b815260040161025690611a29565b60006107c8610760565b90506107d981600087878787610ac1565b60005b84518110156108905783818151811061080557634e487b7160e01b600052603260045260246000fd5b602002602001015160008087848151811061083057634e487b7160e01b600052603260045260246000fd5b602002602001015181526020019081526020016000206000886001600160a01b03166001600160a01b0316815260200190815260200160002060008282546108789190611b17565b9091555081905061088881611b6a565b9150506107dc565b50846001600160a01b031660006001600160a01b0316826001600160a01b03167f4a39dc06d4c0dbc64b70af90fd698a233a518aa5d07e595d983b8c0526c8f7fb87876040516108e19291906116bf565b60405180910390a461046281600087878787610de1565b81518351146109195760405162461bcd60e51b815260040161025690611a29565b6001600160a01b03841661093f5760405162461bcd60e51b815260040161025690611881565b6000610949610760565b9050610959818787878787610ac1565b60005b8451811015610a5b57600085828151811061098757634e487b7160e01b600052603260045260246000fd5b6020026020010151905060008583815181106109b357634e487b7160e01b600052603260045260246000fd5b602090810291909101810151600084815280835260408082206001600160a01b038e168352909352919091205490915081811015610a035760405162461bcd60e51b815260040161025690611918565b6000838152602081815260408083206001600160a01b038e8116855292528083208585039055908b16825281208054849290610a40908490611b17565b9250508190555050505080610a5490611b6a565b905061095c565b50846001600160a01b0316866001600160a01b0316826001600160a01b03167f4a39dc06d4c0dbc64b70af90fd698a233a518aa5d07e595d983b8c0526c8f7fb8787604051610aab9291906116bf565b60405180910390a4610ac1818787878787610de1565b505050505050565b6001600160a01b038416610aef5760405162461bcd60e51b815260040161025690611a71565b6000610af9610760565b9050610b1a81600087610b0b88610eef565b610b1488610eef565b87610ac1565b6000848152602081815260408083206001600160a01b038916845290915281208054859290610b4a908490611b17565b92505081905550846001600160a01b031660006001600160a01b0316826001600160a01b03167fc3d58168c5ae7397731d063d5bbf3d657854427343f4c083240f7aacaa2d0f628787604051610ba1929190611abb565b60405180910390a461046281600087878787610f48565b600380546001600160a01b038381166001600160a01b0319831681179093556040519116919082907f8be0079c531659141344cd1fd0a4f28419497f9722a3daafe3b4186f6b6457e090600090a35050565b816001600160a01b0316836001600160a01b03161415610c3c5760405162461bcd60e51b815260040161025690611997565b6001600160a01b0383811660008181526001602090815260408083209487168084529490915290819020805460ff1916851515179055517f17307eab39ab6107e8899845ad3d59bd9653f200f220920489ca2b5937696c3190610ca09085906116ed565b60405180910390a3505050565b6001600160a01b038416610cd35760405162461bcd60e51b815260040161025690611881565b6000610cdd610760565b9050610cee818787610b0b88610eef565b6000848152602081815260408083206001600160a01b038a16845290915290205483811015610d2f5760405162461bcd60e51b815260040161025690611918565b6000858152602081815260408083206001600160a01b038b8116855292528083208785039055908816825281208054869290610d6c908490611b17565b92505081905550856001600160a01b0316876001600160a01b0316836001600160a01b03167fc3d58168c5ae7397731d063d5bbf3d657854427343f4c083240f7aacaa2d0f628888604051610dc2929190611abb565b60405180910390a4610dd8828888888888610f48565b50505050505050565b610df3846001600160a01b0316611019565b15610ac15760405163bc197c8160e01b81526001600160a01b0385169063bc197c8190610e2c9089908990889088908890600401611609565b602060405180830381600087803b158015610e4657600080fd5b505af1925050508015610e76575060408051601f3d908101601f19168201909252610e73918101906114ee565b60015b610ebf57610e82611bb7565b80610e8d5750610ea7565b8060405162461bcd60e51b815260040161025691906116f8565b60405162461bcd60e51b81526004016102569061170b565b6001600160e01b0319811663bc197c8160e01b14610dd85760405162461bcd60e51b81526004016102569061175f565b60408051600180825281830190925260609160009190602080830190803683370190505090508281600081518110610f3757634e487b7160e01b600052603260045260246000fd5b602090810291909101015292915050565b610f5a846001600160a01b0316611019565b15610ac15760405163f23a6e6160e01b81526001600160a01b0385169063f23a6e6190610f939089908990889088908890600401611667565b602060405180830381600087803b158015610fad57600080fd5b505af1925050508015610fdd575060408051601f3d908101601f19168201909252610fda918101906114ee565b60015b610fe957610e82611bb7565b6001600160e01b0319811663f23a6e6160e01b14610dd85760405162461bcd60e51b81526004016102569061175f565b3b151590565b82805461102b90611b2f565b90600052602060002090601f01602090048101928261104d5760008555611093565b82601f1061106657805160ff1916838001178555611093565b82800160010185558215611093579182015b82811115611093578251825591602001919060010190611078565b5061109f9291506110a3565b5090565b5b8082111561109f57600081556001016110a4565b600067ffffffffffffffff8311156110d2576110d2611b9b565b6110e5601f8401601f1916602001611ac9565b90508281528383830111156110f957600080fd5b828260208301376000602084830101529392505050565b80356001600160a01b03811681146102c857600080fd5b600082601f830112611137578081fd5b8135602061114c61114783611af3565b611ac9565b8281528181019085830183850287018401881015611168578586fd5b855b858110156111865781358452928401929084019060010161116a565b5090979650505050505050565b600082601f8301126111a3578081fd5b6111b2838335602085016110b8565b9392505050565b6000602082840312156111ca578081fd5b6111b282611110565b600080604083850312156111e5578081fd5b6111ee83611110565b91506111fc60208401611110565b90509250929050565b600080600080600060a0868803121561121c578081fd5b61122586611110565b945061123360208701611110565b9350604086013567ffffffffffffffff8082111561124f578283fd5b61125b89838a01611127565b94506060880135915080821115611270578283fd5b61127c89838a01611127565b93506080880135915080821115611291578283fd5b5061129e88828901611193565b9150509295509295909350565b600080600080600060a086880312156112c2578081fd5b6112cb86611110565b94506112d960208701611110565b93506040860135925060608601359150608086013567ffffffffffffffff811115611302578182fd5b61129e88828901611193565b600080600060608486031215611322578283fd5b61132b84611110565b9250602084013567ffffffffffffffff80821115611347578384fd5b61135387838801611127565b93506040860135915080821115611368578283fd5b5061137586828701611127565b9150509250925092565b60008060408385031215611391578182fd5b61139a83611110565b9150602083013580151581146113ae578182fd5b809150509250929050565b600080604083850312156113cb578182fd5b6113d483611110565b946020939093013593505050565b6000806000606084860312156113f6578081fd5b6113ff84611110565b95602085013595506040909401359392505050565b60008060408385031215611426578182fd5b823567ffffffffffffffff8082111561143d578384fd5b818501915085601f830112611450578384fd5b8135602061146061114783611af3565b82815281810190858301838502870184018b101561147c578889fd5b8896505b848710156114a55761149181611110565b835260019690960195918301918301611480565b50965050860135925050808211156114bb578283fd5b506114c885828601611127565b9150509250929050565b6000602082840312156114e3578081fd5b81356111b281611c5c565b6000602082840312156114ff578081fd5b81516111b281611c5c565b60006020828403121561151b578081fd5b813567ffffffffffffffff811115611531578182fd5b8201601f81018413611541578182fd5b611550848235602084016110b8565b949350505050565b600060208284031215611569578081fd5b5035919050565b6000815180845260208085019450808401835b8381101561159f57815187529582019590820190600101611583565b509495945050505050565b60008151808452815b818110156115cf576020818501810151868301820152016115b3565b818111156115e05782602083870101525b50601f01601f19169290920160200192915050565b6001600160a01b0391909116815260200190565b6001600160a01b0386811682528516602082015260a06040820181905260009061163590830186611570565b82810360608401526116478186611570565b9050828103608084015261165b81856115aa565b98975050505050505050565b6001600160a01b03868116825285166020820152604081018490526060810183905260a0608082018190526000906116a1908301846115aa565b979650505050505050565b6000602082526111b26020830184611570565b6000604082526116d26040830185611570565b82810360208401526116e48185611570565b95945050505050565b901515815260200190565b6000602082526111b260208301846115aa565b60208082526034908201527f455243313135353a207472616e7366657220746f206e6f6e20455243313135356040820152732932b1b2b4bb32b91034b6b83632b6b2b73a32b960611b606082015260800190565b60208082526028908201527f455243313135353a204552433131353552656365697665722072656a656374656040820152676420746f6b656e7360c01b606082015260800190565b6020808252602b908201527f455243313135353a2062616c616e636520717565727920666f7220746865207a60408201526a65726f206164647265737360a81b606082015260800190565b60208082526026908201527f4f776e61626c653a206e6577206f776e657220697320746865207a65726f206160408201526564647265737360d01b606082015260800190565b60208082526029908201527f455243313135353a2063616c6c6572206973206e6f74206f776e6572206e6f7260408201526808185c1c1c9bdd995960ba1b606082015260800190565b60208082526025908201527f455243313135353a207472616e7366657220746f20746865207a65726f206164604082015264647265737360d81b606082015260800190565b60208082526032908201527f455243313135353a207472616e736665722063616c6c6572206973206e6f74206040820152711bdddb995c881b9bdc88185c1c1c9bdd995960721b606082015260800190565b6020808252602a908201527f455243313135353a20696e73756666696369656e742062616c616e636520666f60408201526939103a3930b739b332b960b11b606082015260800190565b6020808252818101527f4f776e61626c653a2063616c6c6572206973206e6f7420746865206f776e6572604082015260600190565b60208082526029908201527f455243313135353a2073657474696e6720617070726f76616c20737461747573604082015268103337b91039b2b63360b91b606082015260800190565b60208082526029908201527f455243313135353a206163636f756e747320616e6420696473206c656e677468604082015268040dad2e6dac2e8c6d60bb1b606082015260800190565b60208082526028908201527f455243313135353a2069647320616e6420616d6f756e7473206c656e677468206040820152670dad2e6dac2e8c6d60c31b606082015260800190565b60208082526021908201527f455243313135353a206d696e7420746f20746865207a65726f206164647265736040820152607360f81b606082015260800190565b90815260200190565b918252602082015260400190565b60405181810167ffffffffffffffff81118282101715611aeb57611aeb611b9b565b604052919050565b600067ffffffffffffffff821115611b0d57611b0d611b9b565b5060209081020190565b60008219821115611b2a57611b2a611b85565b500190565b600281046001821680611b4357607f821691505b60208210811415611b6457634e487b7160e01b600052602260045260246000fd5b50919050565b6000600019821415611b7e57611b7e611b85565b5060010190565b634e487b7160e01b600052601160045260246000fd5b634e487b7160e01b600052604160045260246000fd5b60e01c90565b600060443d1015611bc75761063b565b600481823e6308c379a0611bdb8251611bb1565b14611be55761063b565b6040513d600319016004823e80513d67ffffffffffffffff8160248401118184111715611c15575050505061063b565b82840192508251915080821115611c2f575050505061063b565b503d83016020828401011115611c475750505061063b565b601f01601f1916810160200160405291505090565b6001600160e01b03198116811461031557600080fdfea2646970667358221220cc47b7cc541379a849efe4c6569cce53210ce09ca7fae34c91391bfe3d55369964736f6c63430008000033",
  "immutableReferences": {},
  "source": "// SPDX-License-Identifier: MIT\r\npragma solidity ^0.8.0;\r\n\r\nimport \"@openzeppelin/contracts/token/ERC1155/ERC1155.sol\";\r\nimport \"@openzeppelin/contracts/utils/Strings.sol\";\r\nimport \"@openzeppelin/contracts/access/Ownable.sol\";\r\n\r\ncontract PolkaBridgeNFT is ERC1155, Ownable {\r\n    constructor(string memory _uri) ERC1155(_uri) {\r\n        _setURI(_uri);\r\n    }\r\n\r\n    function setURI(string memory uri_) \r\n        public onlyOwner {\r\n        _setURI(uri_);\r\n    }\r\n\r\n    function mintNFT(address recipient_, uint256 id_, uint256 amount_)\r\n        public onlyOwner {    \r\n        _mint(recipient_, id_, amount_, '');\r\n    }\r\n\r\n    function multiMintNFT(address recipient_, uint256[] memory ids_, uint256[] memory amounts_)\r\n        public onlyOwner {\r\n        _mintBatch(recipient_, ids_, amounts_, '');\r\n    }\r\n}\r\n",
  "sourcePath": "C:\\Users\\Thanh Phi\\Desktop\\PolkaBridgeSolution\\polkabridge-ino\\INO\\contracts\\PolkaBridgeNFT.sol",
  "compiler": {
    "name": "solc",
    "version": "0.8.0+commit.c7dfd78e.Emscripten.clang"
  },
  "schemaVersion": "3.4.5",
  "updatedAt": "2022-03-21T09:36:34.088Z",
  "networkType": "ethereum",
  "devdoc": {
    "kind": "dev",
    "methods": {
      "balanceOf(address,uint256)": {
        "details": "See {IERC1155-balanceOf}. Requirements: - `account` cannot be the zero address."
      },
      "balanceOfBatch(address[],uint256[])": {
        "details": "See {IERC1155-balanceOfBatch}. Requirements: - `accounts` and `ids` must have the same length."
      },
      "isApprovedForAll(address,address)": {
        "details": "See {IERC1155-isApprovedForAll}."
      },
      "owner()": {
        "details": "Returns the address of the current owner."
      },
      "renounceOwnership()": {
        "details": "Leaves the contract without owner. It will not be possible to call `onlyOwner` functions anymore. Can only be called by the current owner. NOTE: Renouncing ownership will leave the contract without an owner, thereby removing any functionality that is only available to the owner."
      },
      "safeBatchTransferFrom(address,address,uint256[],uint256[],bytes)": {
        "details": "See {IERC1155-safeBatchTransferFrom}."
      },
      "safeTransferFrom(address,address,uint256,uint256,bytes)": {
        "details": "See {IERC1155-safeTransferFrom}."
      },
      "setApprovalForAll(address,bool)": {
        "details": "See {IERC1155-setApprovalForAll}."
      },
      "supportsInterface(bytes4)": {
        "details": "See {IERC165-supportsInterface}."
      },
      "transferOwnership(address)": {
        "details": "Transfers ownership of the contract to a new account (`newOwner`). Can only be called by the current owner."
      },
      "uri(uint256)": {
        "details": "See {IERC1155MetadataURI-uri}. This implementation returns the same URI for *all* token types. It relies on the token type ID substitution mechanism https://eips.ethereum.org/EIPS/eip-1155#metadata[defined in the EIP]. Clients calling this function must replace the `\\{id\\}` substring with the actual token type ID."
      }
    },
    "version": 1
  },
  "userdoc": {
    "kind": "user",
    "methods": {},
    "version": 1
  }
}