{
  "contractName": "PolkaBridgeINO",
  "abi": [
    {
      "inputs": [
        {
          "internalType": "contract PolkaBridgeNFT",
          "name": "_polkaBridgeNFT",
          "type": "address"
        },
        {
          "internalType": "address payable",
          "name": "_owner",
          "type": "address"
        },
        {
          "internalType": "address",
          "name": "_WETH",
          "type": "address"
        },
        {
          "internalType": "string",
          "name": "_name",
          "type": "string"
        },
        {
          "internalType": "string",
          "name": "_symbol",
          "type": "string"
        }
      ],
      "stateMutability": "nonpayable",
      "type": "constructor"
    },
    {
      "anonymous": false,
      "inputs": [
        {
          "indexed": true,
          "internalType": "address",
          "name": "previousOwner",
          "type": "address"
        },
        {
          "indexed": true,
          "internalType": "address",
          "name": "newOwner",
          "type": "address"
        }
      ],
      "name": "OwnershipTransferred",
      "type": "event"
    },
    {
      "inputs": [],
      "name": "WETH",
      "outputs": [
        {
          "internalType": "address",
          "name": "",
          "type": "address"
        }
      ],
      "stateMutability": "view",
      "type": "function",
      "constant": true
    },
    {
      "inputs": [],
      "name": "name",
      "outputs": [
        {
          "internalType": "string",
          "name": "",
          "type": "string"
        }
      ],
      "stateMutability": "view",
      "type": "function",
      "constant": true
    },
    {
      "inputs": [],
      "name": "owner",
      "outputs": [
        {
          "internalType": "address",
          "name": "",
          "type": "address"
        }
      ],
      "stateMutability": "view",
      "type": "function",
      "constant": true
    },
    {
      "inputs": [],
      "name": "polkaBridgeNFT",
      "outputs": [
        {
          "internalType": "contract PolkaBridgeNFT",
          "name": "",
          "type": "address"
        }
      ],
      "stateMutability": "view",
      "type": "function",
      "constant": true
    },
    {
      "inputs": [
        {
          "internalType": "uint256",
          "name": "",
          "type": "uint256"
        },
        {
          "internalType": "address",
          "name": "",
          "type": "address"
        }
      ],
      "name": "purchasecheck",
      "outputs": [
        {
          "internalType": "bool",
          "name": "",
          "type": "bool"
        }
      ],
      "stateMutability": "view",
      "type": "function",
      "constant": true
    },
    {
      "inputs": [],
      "name": "renounceOwnership",
      "outputs": [],
      "stateMutability": "nonpayable",
      "type": "function"
    },
    {
      "inputs": [],
      "name": "symbol",
      "outputs": [
        {
          "internalType": "string",
          "name": "",
          "type": "string"
        }
      ],
      "stateMutability": "view",
      "type": "function",
      "constant": true
    },
    {
      "inputs": [
        {
          "internalType": "address",
          "name": "newOwner",
          "type": "address"
        }
      ],
      "name": "transferOwnership",
      "outputs": [],
      "stateMutability": "nonpayable",
      "type": "function"
    },
    {
      "inputs": [
        {
          "internalType": "uint256",
          "name": "",
          "type": "uint256"
        },
        {
          "internalType": "address",
          "name": "",
          "type": "address"
        }
      ],
      "name": "whitelist",
      "outputs": [
        {
          "internalType": "uint256",
          "name": "Id",
          "type": "uint256"
        },
        {
          "internalType": "bool",
          "name": "IsWhitelist",
          "type": "bool"
        },
        {
          "internalType": "uint256",
          "name": "WhitelistDate",
          "type": "uint256"
        },
        {
          "internalType": "uint256",
          "name": "PurchaseTime",
          "type": "uint256"
        },
        {
          "internalType": "bool",
          "name": "IsClaimed",
          "type": "bool"
        },
        {
          "internalType": "uint256",
          "name": "TotalETHPurchase",
          "type": "uint256"
        },
        {
          "internalType": "uint256",
          "name": "PurchasedItemCount",
          "type": "uint256"
        }
      ],
      "stateMutability": "view",
      "type": "function",
      "constant": true
    },
    {
      "stateMutability": "payable",
      "type": "receive",
      "payable": true
    },
    {
      "inputs": [
        {
          "internalType": "address payable",
          "name": "_owner",
          "type": "address"
        }
      ],
      "name": "changeOwner",
      "outputs": [],
      "stateMutability": "nonpayable",
      "type": "function"
    },
    {
      "inputs": [],
      "name": "poolLength",
      "outputs": [
        {
          "internalType": "uint256",
          "name": "",
          "type": "uint256"
        }
      ],
      "stateMutability": "view",
      "type": "function",
      "constant": true
    },
    {
      "inputs": [],
      "name": "packageLength",
      "outputs": [
        {
          "internalType": "uint256",
          "name": "",
          "type": "uint256"
        }
      ],
      "stateMutability": "view",
      "type": "function",
      "constant": true
    },
    {
      "inputs": [
        {
          "internalType": "address",
          "name": "user",
          "type": "address"
        },
        {
          "internalType": "uint256",
          "name": "pid",
          "type": "uint256"
        }
      ],
      "name": "addWhitelist",
      "outputs": [],
      "stateMutability": "nonpayable",
      "type": "function"
    },
    {
      "inputs": [
        {
          "internalType": "address[]",
          "name": "user",
          "type": "address[]"
        },
        {
          "internalType": "uint256",
          "name": "pid",
          "type": "uint256"
        }
      ],
      "name": "addMulWhitelist",
      "outputs": [],
      "stateMutability": "nonpayable",
      "type": "function"
    },
    {
      "inputs": [
        {
          "internalType": "address",
          "name": "user",
          "type": "address"
        },
        {
          "internalType": "uint256",
          "name": "pid",
          "type": "uint256"
        },
        {
          "internalType": "bool",
          "name": "isWhitelist",
          "type": "bool"
        }
      ],
      "name": "updateWhitelist",
      "outputs": [],
      "stateMutability": "nonpayable",
      "type": "function"
    },
    {
      "inputs": [
        {
          "internalType": "address",
          "name": "user",
          "type": "address"
        },
        {
          "internalType": "uint256",
          "name": "pid",
          "type": "uint256"
        }
      ],
      "name": "IsWhitelist",
      "outputs": [
        {
          "internalType": "bool",
          "name": "",
          "type": "bool"
        }
      ],
      "stateMutability": "view",
      "type": "function",
      "constant": true
    },
    {
      "inputs": [
        {
          "internalType": "uint256",
          "name": "_PoolId",
          "type": "uint256"
        },
        {
          "internalType": "uint256",
          "name": "_MinimumTokenSoldout",
          "type": "uint256"
        },
        {
          "internalType": "uint256",
          "name": "_TotalItemCount",
          "type": "uint256"
        },
        {
          "internalType": "uint256",
          "name": "_RatePerETH",
          "type": "uint256"
        }
      ],
      "name": "addPackageToPool",
      "outputs": [],
      "stateMutability": "nonpayable",
      "type": "function"
    },
    {
      "inputs": [
        {
          "internalType": "uint256",
          "name": "_Begin",
          "type": "uint256"
        },
        {
          "internalType": "uint256",
          "name": "_End",
          "type": "uint256"
        },
        {
          "internalType": "uint256",
          "name": "_Type",
          "type": "uint256"
        },
        {
          "internalType": "uint256",
          "name": "_AmountPBRRequire",
          "type": "uint256"
        },
        {
          "internalType": "uint256",
          "name": "_LockDuration",
          "type": "uint256"
        },
        {
          "internalType": "uint256",
          "name": "_claimType",
          "type": "uint256"
        }
      ],
      "name": "addPool",
      "outputs": [],
      "stateMutability": "nonpayable",
      "type": "function"
    },
    {
      "inputs": [
        {
          "internalType": "uint256",
          "name": "pid",
          "type": "uint256"
        },
        {
          "internalType": "uint256",
          "name": "_Begin",
          "type": "uint256"
        },
        {
          "internalType": "uint256",
          "name": "_End",
          "type": "uint256"
        },
        {
          "internalType": "uint256",
          "name": "_Type",
          "type": "uint256"
        },
        {
          "internalType": "uint256",
          "name": "_AmountPBRRequire",
          "type": "uint256"
        },
        {
          "internalType": "uint256",
          "name": "_LockDuration",
          "type": "uint256"
        },
        {
          "internalType": "uint256",
          "name": "_claimType",
          "type": "uint256"
        }
      ],
      "name": "updatePool",
      "outputs": [],
      "stateMutability": "nonpayable",
      "type": "function"
    },
    {
      "inputs": [
        {
          "internalType": "uint256",
          "name": "pid",
          "type": "uint256"
        }
      ],
      "name": "stopPool",
      "outputs": [],
      "stateMutability": "nonpayable",
      "type": "function"
    },
    {
      "inputs": [
        {
          "internalType": "uint256",
          "name": "pid",
          "type": "uint256"
        }
      ],
      "name": "activePool",
      "outputs": [],
      "stateMutability": "nonpayable",
      "type": "function"
    },
    {
      "inputs": [
        {
          "internalType": "uint256",
          "name": "_PackageId",
          "type": "uint256"
        },
        {
          "internalType": "uint256",
          "name": "_PoolId",
          "type": "uint256"
        },
        {
          "internalType": "uint256",
          "name": "_MinimumTokenSoldout",
          "type": "uint256"
        },
        {
          "internalType": "uint256",
          "name": "_TotalItemCount",
          "type": "uint256"
        },
        {
          "internalType": "uint256",
          "name": "_RatePerETH",
          "type": "uint256"
        }
      ],
      "name": "updatePackage",
      "outputs": [],
      "stateMutability": "nonpayable",
      "type": "function"
    },
    {
      "inputs": [
        {
          "internalType": "uint256",
          "name": "packageId",
          "type": "uint256"
        }
      ],
      "name": "getBalanceItemByPackageId",
      "outputs": [
        {
          "internalType": "uint256",
          "name": "",
          "type": "uint256"
        }
      ],
      "stateMutability": "view",
      "type": "function",
      "constant": true
    },
    {
      "inputs": [
        {
          "internalType": "uint256",
          "name": "packageId",
          "type": "uint256"
        }
      ],
      "name": "getRemainINOToken",
      "outputs": [
        {
          "internalType": "uint256",
          "name": "",
          "type": "uint256"
        }
      ],
      "stateMutability": "view",
      "type": "function",
      "constant": true
    },
    {
      "inputs": [
        {
          "internalType": "uint256",
          "name": "packageId",
          "type": "uint256"
        },
        {
          "internalType": "uint256",
          "name": "quantity",
          "type": "uint256"
        }
      ],
      "name": "purchaseINO",
      "outputs": [],
      "stateMutability": "payable",
      "type": "function",
      "payable": true
    },
    {
      "inputs": [
        {
          "internalType": "uint256",
          "name": "pid",
          "type": "uint256"
        }
      ],
      "name": "claimPool",
      "outputs": [],
      "stateMutability": "nonpayable",
      "type": "function"
    },
    {
      "inputs": [
        {
          "internalType": "address",
          "name": "",
          "type": "address"
        },
        {
          "internalType": "address",
          "name": "",
          "type": "address"
        },
        {
          "internalType": "uint256",
          "name": "",
          "type": "uint256"
        },
        {
          "internalType": "uint256",
          "name": "",
          "type": "uint256"
        },
        {
          "internalType": "bytes",
          "name": "",
          "type": "bytes"
        }
      ],
      "name": "onERC1155Received",
      "outputs": [
        {
          "internalType": "bytes4",
          "name": "",
          "type": "bytes4"
        }
      ],
      "stateMutability": "nonpayable",
      "type": "function"
    },
    {
      "inputs": [
        {
          "internalType": "address",
          "name": "",
          "type": "address"
        },
        {
          "internalType": "address",
          "name": "",
          "type": "address"
        },
        {
          "internalType": "uint256[]",
          "name": "",
          "type": "uint256[]"
        },
        {
          "internalType": "uint256[]",
          "name": "",
          "type": "uint256[]"
        },
        {
          "internalType": "bytes",
          "name": "",
          "type": "bytes"
        }
      ],
      "name": "onERC1155BatchReceived",
      "outputs": [
        {
          "internalType": "bytes4",
          "name": "",
          "type": "bytes4"
        }
      ],
      "stateMutability": "nonpayable",
      "type": "function"
    },
    {
      "inputs": [
        {
          "internalType": "address",
          "name": "",
          "type": "address"
        },
        {
          "internalType": "address",
          "name": "",
          "type": "address"
        },
        {
          "internalType": "uint256",
          "name": "",
          "type": "uint256"
        },
        {
          "internalType": "bytes",
          "name": "",
          "type": "bytes"
        }
      ],
      "name": "onERC721Received",
      "outputs": [
        {
          "internalType": "bytes4",
          "name": "",
          "type": "bytes4"
        }
      ],
      "stateMutability": "nonpayable",
      "type": "function"
    },
    {
      "inputs": [
        {
          "internalType": "bytes4",
          "name": "interfaceId",
          "type": "bytes4"
        }
      ],
      "name": "supportsInterface",
      "outputs": [
        {
          "internalType": "bool",
          "name": "",
          "type": "bool"
        }
      ],
      "stateMutability": "pure",
      "type": "function",
      "constant": true
    },
    {
      "inputs": [
        {
          "internalType": "uint256",
          "name": "pid",
          "type": "uint256"
        }
      ],
      "name": "getPoolInfo",
      "outputs": [
        {
          "components": [
            {
              "internalType": "uint256",
              "name": "Id",
              "type": "uint256"
            },
            {
              "internalType": "uint256",
              "name": "Begin",
              "type": "uint256"
            },
            {
              "internalType": "uint256",
              "name": "End",
              "type": "uint256"
            },
            {
              "internalType": "uint256",
              "name": "Type",
              "type": "uint256"
            },
            {
              "internalType": "uint256",
              "name": "AmountPBRRequire",
              "type": "uint256"
            },
            {
              "internalType": "uint256",
              "name": "LockDuration",
              "type": "uint256"
            },
            {
              "internalType": "uint256",
              "name": "ActivedDate",
              "type": "uint256"
            },
            {
              "internalType": "uint256",
              "name": "StopDate",
              "type": "uint256"
            },
            {
              "internalType": "uint256",
              "name": "claimType",
              "type": "uint256"
            },
            {
              "internalType": "bool",
              "name": "IsActived",
              "type": "bool"
            },
            {
              "internalType": "bool",
              "name": "IsStopped",
              "type": "bool"
            },
            {
              "internalType": "uint256[]",
              "name": "PackageIds",
              "type": "uint256[]"
            }
          ],
          "internalType": "struct PolkaBridgeINO.INOPool",
          "name": "retSt",
          "type": "tuple"
        }
      ],
      "stateMutability": "view",
      "type": "function",
      "constant": true
    },
    {
      "inputs": [
        {
          "internalType": "uint256",
          "name": "packageId",
          "type": "uint256"
        }
      ],
      "name": "getPackageInfo",
      "outputs": [
        {
          "components": [
            {
              "internalType": "uint256",
              "name": "Id",
              "type": "uint256"
            },
            {
              "internalType": "uint256",
              "name": "PoolId",
              "type": "uint256"
            },
            {
              "internalType": "uint256",
              "name": "TotalSoldCount",
              "type": "uint256"
            },
            {
              "internalType": "uint256",
              "name": "MinimumTokenSoldout",
              "type": "uint256"
            },
            {
              "internalType": "uint256",
              "name": "TotalItemCount",
              "type": "uint256"
            },
            {
              "internalType": "uint256",
              "name": "RatePerETH",
              "type": "uint256"
            },
            {
              "internalType": "address[]",
              "name": "UsersPurchased",
              "type": "address[]"
            }
          ],
          "internalType": "struct PolkaBridgeINO.Package",
          "name": "retSt",
          "type": "tuple"
        }
      ],
      "stateMutability": "view",
      "type": "function",
      "constant": true
    },
    {
      "inputs": [
        {
          "internalType": "address",
          "name": "user_",
          "type": "address"
        },
        {
          "internalType": "uint256",
          "name": "pid",
          "type": "uint256"
        }
      ],
      "name": "getPurchasedPackageIds",
      "outputs": [
        {
          "internalType": "uint256[]",
          "name": "",
          "type": "uint256[]"
        }
      ],
      "stateMutability": "view",
      "type": "function",
      "constant": true
    },
    {
      "inputs": [],
      "name": "withdrawPoolFund",
      "outputs": [],
      "stateMutability": "nonpayable",
      "type": "function"
    },
    {
      "inputs": [],
      "name": "withdrawETHFund",
      "outputs": [],
      "stateMutability": "nonpayable",
      "type": "function"
    },
    {
      "inputs": [
        {
          "internalType": "contract IERC20",
          "name": "token",
          "type": "address"
        }
      ],
      "name": "withdrawErc20",
      "outputs": [],
      "stateMutability": "nonpayable",
      "type": "function"
    }
  ],
  "bytecode": "0x60a06040523480156200001157600080fd5b5060405162003a0c38038062003a0c833981016040819052620000349162000276565b6200004862000042620000d1565b620000d5565b60018055600280546001600160a01b0319166001600160a01b038616179055606083901b6001600160601b03191660805281516200008e90600590602085019062000125565b508051620000a490600690602084019062000125565b5050600480546001600160a01b0319166001600160a01b039590951694909417909355506200038a915050565b3390565b600080546001600160a01b038381166001600160a01b0319831681178455604051919092169283917f8be0079c531659141344cd1fd0a4f28419497f9722a3daafe3b4186f6b6457e09190a35050565b82805462000133906200031e565b90600052602060002090601f016020900481019282620001575760008555620001a2565b82601f106200017257805160ff1916838001178555620001a2565b82800160010185558215620001a2579182015b82811115620001a257825182559160200191906001019062000185565b50620001b0929150620001b4565b5090565b5b80821115620001b05760008155600101620001b5565b600082601f830112620001dc578081fd5b81516001600160401b0380821115620001f957620001f96200035b565b6040516020601f8401601f19168201810183811183821017156200022157620002216200035b565b604052838252858401810187101562000238578485fd5b8492505b838310156200025b57858301810151828401820152918201916200023c565b838311156200026c57848185840101525b5095945050505050565b600080600080600060a086880312156200028e578081fd5b85516200029b8162000371565b6020870151909550620002ae8162000371565b6040870151909450620002c18162000371565b60608701519093506001600160401b0380821115620002de578283fd5b620002ec89838a01620001cb565b9350608088015191508082111562000302578283fd5b506200031188828901620001cb565b9150509295509295909350565b6002810460018216806200033357607f821691505b602082108114156200035557634e487b7160e01b600052602260045260246000fd5b50919050565b634e487b7160e01b600052604160045260246000fd5b6001600160a01b03811681146200038757600080fd5b50565b60805160601c613647620003c560003960008181610c5701528181610cdd015281816114b501528181611554015261258d01526136476000f3fe6080604052600436106102135760003560e01c8063715018a611610118578063a6f9dae1116100a0578063c7e42b1b1161006f578063c7e42b1b14610615578063ce49ff6114610635578063cec2a0b41461064a578063f23a6e611461066a578063f2fde38b1461068a5761021a565b8063a6f9dae1146105a0578063ad5c4648146105c0578063b39d9009146105d5578063bc197c81146105f55761021a565b80638583e823116100e75780638583e823146105095780638da5cb5b1461052957806395d89b411461054b5780639c13180614610560578063a571d18c146105805761021a565b8063715018a614610487578063753969da1461049c578063795d121c146104bc5780638042c3f2146104dc5761021a565b80631f4552cb1161019b57806353ffa2991161016a57806353ffa299146103e55780635729bd4c146103fa57806364e4ffb41461041a57806364ee0776146104475780637023cee0146104675761021a565b80631f4552cb1461035b5780631faee868146103705780632f380b35146103855780634b25bfce146103b25761021a565b806308405e74116101e257806308405e74146102ae5780630ac2d472146102ce5780630f4d0357146102ee578063150b7a021461030e5780631a1d69ec1461033b5761021a565b806301ffc9a71461021f57806306fdde0314610255578063081e3eda14610277578063083d7de2146102995761021a565b3661021a57005b600080fd5b34801561022b57600080fd5b5061023f61023a366004612e36565b6106aa565b60405161024c919061308e565b60405180910390f35b34801561026157600080fd5b5061026a6106c3565b60405161024c91906130ae565b34801561028357600080fd5b5061028c610751565b60405161024c9190613475565b6102ac6102a7366004612ebd565b610757565b005b3480156102ba57600080fd5b506102ac6102c9366004612d3a565b610d84565b3480156102da57600080fd5b506102ac6102e9366004612f8b565b610edd565b3480156102fa57600080fd5b506102ac610309366004612e5e565b6110a1565b34801561031a57600080fd5b5061032e610329366004612c3e565b6111c0565b60405161024c9190613099565b34801561034757600080fd5b506102ac610356366004612d7b565b6111d0565b34801561036757600080fd5b506102ac61145c565b34801561037c57600080fd5b5061028c6115f9565b34801561039157600080fd5b506103a56103a0366004612e5e565b6115ff565b60405161024c919061332c565b3480156103be57600080fd5b506103d26103cd366004612e8e565b61172a565b60405161024c979695949392919061347e565b3480156103f157600080fd5b506102ac611778565b34801561040657600080fd5b506102ac610415366004612e5e565b61180f565b34801561042657600080fd5b5061043a610435366004612e5e565b611947565b60405161024c91906133dd565b34801561045357600080fd5b5061028c610462366004612e5e565b611a3d565b34801561047357600080fd5b506102ac610482366004612f0f565b611acb565b34801561049357600080fd5b506102ac611c10565b3480156104a857600080fd5b506102ac6104b7366004612ede565b611c5b565b3480156104c857600080fd5b506102ac6104d7366004612e5e565b611e01565b3480156104e857600080fd5b506104fc6104f7366004612d0f565b61218a565b60405161024c919061307b565b34801561051557600080fd5b5061028c610524366004612e5e565b612202565b34801561053557600080fd5b5061053e61224d565b60405161024c9190613016565b34801561055757600080fd5b5061026a61225c565b34801561056c57600080fd5b5061023f61057b366004612d0f565b612269565b34801561058c57600080fd5b506102ac61059b366004612f49565b612364565b3480156105ac57600080fd5b506102ac6105bb366004612b78565b61252a565b3480156105cc57600080fd5b5061053e61258b565b3480156105e157600080fd5b506102ac6105f0366004612d0f565b6125af565b34801561060157600080fd5b5061032e610610366004612b94565b61270a565b34801561062157600080fd5b506102ac610630366004612b78565b61271b565b34801561064157600080fd5b5061053e612815565b34801561065657600080fd5b5061023f610665366004612e8e565b612824565b34801561067657600080fd5b5061032e610685366004612ca8565b612844565b34801561069657600080fd5b506102ac6106a5366004612b78565b612855565b6001600160e01b031981166301ffc9a760e01b14919050565b600580546106d09061356c565b80601f01602080910402602001604051908101604052809291908181526020018280546106fc9061356c565b80156107495780601f1061071e57610100808354040283529160200191610749565b820191906000526020600020905b81548152906001019060200180831161072c57829003601f168201915b505050505081565b600a5490565b600260015414156107835760405162461bcd60e51b815260040161077a906132a9565b60405180910390fd5b600260019081556000906107989084906128c6565b90506000600b82815481106107bd57634e487b7160e01b600052603260045260246000fd5b906000526020600020906007020160010154905060006107e76001836128c690919063ffffffff16565b9050600a818154811061080a57634e487b7160e01b600052603260045260246000fd5b600091825260209091206009600b90920201015460ff1661083d5760405162461bcd60e51b815260040161077a90613306565b600a818154811061085e57634e487b7160e01b600052603260045260246000fd5b90600052602060002090600b02016001015442101580156108b15750600a818154811061089b57634e487b7160e01b600052603260045260246000fd5b90600052602060002090600b0201600201544211155b6108cd5760405162461bcd60e51b815260040161077a906132e0565b600a81815481106108ee57634e487b7160e01b600052603260045260246000fd5b90600052602060002090600b0201600301546002141561092e576109123383612269565b61092e5760405162461bcd60e51b815260040161077a9061325c565b6000349050600061098c670de0b6b3a7640000610986600b888154811061096557634e487b7160e01b600052603260045260246000fd5b906000526020600020906007020160050154856128d290919063ffffffff16565b906128de565b9050858110156109ae5760405162461bcd60e51b815260040161077a9061320a565b600086821115610a2757610a1a670de0b6b3a7640000610a14610a0d600b8a815481106109eb57634e487b7160e01b600052603260045260246000fd5b90600052602060002090600702016005015460016128de90919063ffffffff16565b8a906128d2565b906128d2565b610a249084613555565b90505b6000610a3289611a3d565b9050600b8781548110610a5557634e487b7160e01b600052603260045260246000fd5b9060005260206000209060070201600301548111610a855760405162461bcd60e51b815260040161077a90613236565b87811015610aa55760405162461bcd60e51b815260040161077a90613236565b6000898152600760209081526040808320338452909152902060050154610acc90856128ea565b60008a81526007602090815260408083203384529091529020600581019190915560060154610afb90896128ea565b60008a8152600760209081526040808320338085529083528184206006810195909555426003909501949094558c835260088252808320938352929052205460ff16610bda57600b8781548110610b6257634e487b7160e01b600052603260045260246000fd5b60009182526020808320600792830201600601805460018082018355918552828520018054336001600160a01b031990911681179091558d8552600883526040808620918652908352808520805460ff191683179055600983528085208b865283528420909201805492830181558352909120018990555b610c1f88600b8981548110610bff57634e487b7160e01b600052603260045260246000fd5b9060005260206000209060070201600201546128ea90919063ffffffff16565b600b8881548110610c4057634e487b7160e01b600052603260045260246000fd5b9060005260206000209060070201600201819055507f00000000000000000000000000000000000000000000000000000000000000006001600160a01b031663d0e30db0856040518263ffffffff1660e01b81526004016000604051808303818588803b158015610cb057600080fd5b505af1158015610cc4573d6000803e3d6000fd5b5050604051632e1a7d4d60e01b81526001600160a01b037f0000000000000000000000000000000000000000000000000000000000000000169350632e1a7d4d9250610d1591508590600401613475565b600060405180830381600087803b158015610d2f57600080fd5b505af1158015610d43573d6000803e3d6000fd5b505060405133925084156108fc02915084906000818181858888f19350505050158015610d74573d6000803e3d6000fd5b5050600180555050505050505050565b610d8c6128f6565b6001600160a01b0316610d9d61224d565b6001600160a01b031614610dc35760405162461bcd60e51b815260040161077a906131d5565b6000610dd08360016128c6565b90506000600a8281548110610df557634e487b7160e01b600052603260045260246000fd5b90600052602060002090600b0201600a01805480602002602001604051908101604052809291908181526020018280548015610e5057602002820191906000526020600020905b815481526020019060010190808311610e3c575b505083519394506000925050505b81811015610ed4576000838281518110610e8857634e487b7160e01b600052603260045260246000fd5b60209081029190910181015160009081526007825260408082206001600160a01b038c16835290925220600101805460ff19168715151790555080610ecc816135a7565b915050610e5e565b50505050505050565b610ee56128f6565b6001600160a01b0316610ef661224d565b6001600160a01b031614610f1c5760405162461bcd60e51b815260040161077a906131d5565b6000610f298860016128c6565b905081600a8281548110610f4d57634e487b7160e01b600052603260045260246000fd5b600091825260209091206008600b9092020101558615610f9f5786600a8281548110610f8957634e487b7160e01b600052603260045260246000fd5b90600052602060002090600b0201600101819055505b8515610fdd5785600a8281548110610fc757634e487b7160e01b600052603260045260246000fd5b90600052602060002090600b0201600201819055505b841561101b5784600a828154811061100557634e487b7160e01b600052603260045260246000fd5b90600052602060002090600b0201600301819055505b83156110595783600a828154811061104357634e487b7160e01b600052603260045260246000fd5b90600052602060002090600b0201600401819055505b82156110975782600a828154811061108157634e487b7160e01b600052603260045260246000fd5b90600052602060002090600b0201600501819055505b5050505050505050565b6110a96128f6565b6001600160a01b03166110ba61224d565b6001600160a01b0316146110e05760405162461bcd60e51b815260040161077a906131d5565b60006110ed8260016128c6565b90506000600a828154811061111257634e487b7160e01b600052603260045260246000fd5b90600052602060002090600b020160090160006101000a81548160ff0219169083151502179055506001600a828154811061115d57634e487b7160e01b600052603260045260246000fd5b90600052602060002090600b020160090160016101000a81548160ff02191690831515021790555042600a82815481106111a757634e487b7160e01b600052603260045260246000fd5b90600052602060002090600b0201600701819055505050565b630a85bd0160e11b949350505050565b6111d86128f6565b6001600160a01b03166111e961224d565b6001600160a01b03161461120f5760405162461bcd60e51b815260040161077a906131d5565b600061121c8260016128c6565b90506000600a828154811061124157634e487b7160e01b600052603260045260246000fd5b90600052602060002090600b0201600a0180548060200260200160405190810160405280929190818152602001828054801561129c57602002820191906000526020600020905b815481526020019060010190808311611288575b505083519394506000925050505b85518110156114545760005b828110156114415760008482815181106112e057634e487b7160e01b600052603260045260246000fd5b60200260200101519050866007600083815260200190815260200160002060008a868151811061132057634e487b7160e01b600052603260045260246000fd5b60200260200101516001600160a01b03166001600160a01b031681526020019081526020016000206000018190555060016007600083815260200190815260200160002060008a868151811061138657634e487b7160e01b600052603260045260246000fd5b60200260200101516001600160a01b03166001600160a01b0316815260200190815260200160002060010160006101000a81548160ff021916908315150217905550426007600083815260200190815260200160002060008a86815181106113fe57634e487b7160e01b600052603260045260246000fd5b60200260200101516001600160a01b03166001600160a01b0316815260200190815260200160002060020181905550508080611439906135a7565b9150506112b6565b508061144c816135a7565b9150506112aa565b505050505050565b6114646128f6565b6001600160a01b031661147561224d565b6001600160a01b03161461149b5760405162461bcd60e51b815260040161077a906131d5565b6040516370a0823160e01b81526000906001600160a01b037f000000000000000000000000000000000000000000000000000000000000000016906370a08231906114ea903090600401613016565b60206040518083038186803b15801561150257600080fd5b505afa158015611516573d6000803e3d6000fd5b505050506040513d601f19601f8201168201806040525081019061153a9190612e76565b604051632e1a7d4d60e01b81529091506001600160a01b037f00000000000000000000000000000000000000000000000000000000000000001690632e1a7d4d90611589908490600401613475565b600060405180830381600087803b1580156115a357600080fd5b505af11580156115b7573d6000803e3d6000fd5b50506002546040516001600160a01b03909116925083156108fc02915083906000818181858888f193505050501580156115f5573d6000803e3d6000fd5b5050565b600b5490565b61160761294a565b60006116148360016128c6565b9050600a818154811061163757634e487b7160e01b600052603260045260246000fd5b60009182526020918290206040805161018081018252600b909302909101805483526001810154838501526002810154838301526003810154606084015260048101546080840152600581015460a0840152600681015460c0840152600781015460e0840152600881015461010080850191909152600982015460ff8082161515610120870152919004161515610140840152600a81018054835181870281018701909452808452939491936101608601939283018282801561171957602002820191906000526020600020905b815481526020019060010190808311611705575b505050505081525050915050919050565b60076020908152600092835260408084209091529082529020805460018201546002830154600384015460048501546005860154600690960154949560ff9485169593949293929091169187565b6117806128f6565b6001600160a01b031661179161224d565b6001600160a01b0316146117b75760405162461bcd60e51b815260040161077a906131d5565b47806117d55760405162461bcd60e51b815260040161077a90613101565b6002546040516001600160a01b039091169082156108fc029083906000818181858888f193505050501580156115f5573d6000803e3d6000fd5b6118176128f6565b6001600160a01b031661182861224d565b6001600160a01b03161461184e5760405162461bcd60e51b815260040161077a906131d5565b600061185b8260016128c6565b90506001600a828154811061188057634e487b7160e01b600052603260045260246000fd5b600091825260208220600b9190910201600901805460ff191692151592909217909155600a8054839081106118c557634e487b7160e01b600052603260045260246000fd5b90600052602060002090600b020160090160016101000a81548160ff02191690831515021790555042600a828154811061190f57634e487b7160e01b600052603260045260246000fd5b90600052602060002090600b0201600601819055506000600a82815481106111a757634e487b7160e01b600052603260045260246000fd5b61194f6129af565b600061195c8360016128c6565b9050600b818154811061197f57634e487b7160e01b600052603260045260246000fd5b90600052602060002090600702016040518060e00160405290816000820154815260200160018201548152602001600282015481526020016003820154815260200160048201548152602001600582015481526020016006820180548060200260200160405190810160405280929190818152602001828054801561171957602002820191906000526020600020905b81546001600160a01b03168152600190910190602001808311611a0f57505050505081525050915050919050565b600080611a4b8360016128c6565b9050611ac4600b8281548110611a7157634e487b7160e01b600052603260045260246000fd5b906000526020600020906007020160020154600b8381548110611aa457634e487b7160e01b600052603260045260246000fd5b9060005260206000209060070201600401546128c690919063ffffffff16565b9392505050565b611ad36128f6565b6001600160a01b0316611ae461224d565b6001600160a01b031614611b0a5760405162461bcd60e51b815260040161077a906131d5565b6000611b178660016128c6565b905084600b8281548110611b3b57634e487b7160e01b600052603260045260246000fd5b60009182526020909120600160079092020101558315611b8d5783600b8281548110611b7757634e487b7160e01b600052603260045260246000fd5b9060005260206000209060070201600301819055505b8215611bcb5782600b8281548110611bb557634e487b7160e01b600052603260045260246000fd5b9060005260206000209060070201600401819055505b81156114545781600b8281548110611bf357634e487b7160e01b600052603260045260246000fd5b906000526020600020906007020160050181905550505050505050565b611c186128f6565b6001600160a01b0316611c2961224d565b6001600160a01b031614611c4f5760405162461bcd60e51b815260040161077a906131d5565b611c5960006128fa565b565b611c636128f6565b6001600160a01b0316611c7461224d565b6001600160a01b031614611c9a5760405162461bcd60e51b815260040161077a906131d5565b600b54600090611cab9060016128ea565b9050600b6040518060e0016040528083815260200187815260200160008152602001868152602001858152602001848152602001600067ffffffffffffffff811115611d0757634e487b7160e01b600052604160045260246000fd5b604051908082528060200260200182016040528015611d30578160200160208202803683370190505b50905281546001818101845560009384526020938490208351600790930201918255838301519082015560408201516002820155606082015160038201556080820151600482015560a0820151600582015560c0820151805192939192611d9d92600685019201906129ec565b5060009150611daf90508660016128c6565b9050600a8181548110611dd257634e487b7160e01b600052603260045260246000fd5b60009182526020808320600a600b90930201919091018054600181018255908352912001919091555050505050565b60026001541415611e245760405162461bcd60e51b815260040161077a906132a9565b60026001908155600090611e399083906128c6565b9050600a8181548110611e5c57634e487b7160e01b600052603260045260246000fd5b90600052602060002090600b020160080154600114611e8d5760405162461bcd60e51b815260040161077a90613282565b600a8181548110611eae57634e487b7160e01b600052603260045260246000fd5b90600052602060002090600b02016003015460021415611eee57611ed23383612269565b611eee5760405162461bcd60e51b815260040161077a9061325c565b611f65600a8281548110611f1257634e487b7160e01b600052603260045260246000fd5b90600052602060002090600b020160050154600a8381548110611f4557634e487b7160e01b600052603260045260246000fd5b90600052602060002090600b0201600201546128ea90919063ffffffff16565b4211611f835760405162461bcd60e51b815260040161077a9061319e565b336000908152600960209081526040808320858452825280832060070180548251818502810185019093528083529192909190830182828015611fe557602002820191906000526020600020905b815481526020019060010190808311611fd1575b50505050509050600081519050600760008360008151811061201757634e487b7160e01b600052603260045260246000fd5b6020908102919091018101518252818101929092526040908101600090812033825290925290206004015460ff16156120625760405162461bcd60e51b815260040161077a9061312a565b60005b8181101561217f57600083828151811061208f57634e487b7160e01b600052603260045260246000fd5b6020908102919091018101516000818152600883526040808220338352909352919091205490915060ff161561216c5760008181526007602090815260408083203380855292529182902060060154600480549351637921219560e11b815291936001600160a01b03169263f242432a92612111923092918891889101613043565b600060405180830381600087803b15801561212b57600080fd5b505af115801561213f573d6000803e3d6000fd5b50505060008381526007602090815260408083203384529091529020600401805460ff1916600117905550505b5080612177816135a7565b915050612065565b505060018055505050565b6001600160a01b03821660009081526009602090815260408083208484528252918290206007018054835181840281018401909452808452606093928301828280156121f557602002820191906000526020600020905b8154815260200190600101908083116121e1575b5050505050905092915050565b6000806122108360016128c6565b9050600b818154811061223357634e487b7160e01b600052603260045260246000fd5b906000526020600020906007020160040154915050919050565b6000546001600160a01b031690565b600680546106d09061356c565b6000806122778360016128c6565b90506000600a828154811061229c57634e487b7160e01b600052603260045260246000fd5b90600052602060002090600b0201600a018054806020026020016040519081016040528092919081815260200182805480156122f757602002820191906000526020600020905b8154815260200190600101908083116122e3575b50505050509050600760008260008151811061232357634e487b7160e01b600052603260045260246000fd5b602090810291909101810151825281810192909252604090810160009081206001600160a01b038916825290925290206001015460ff169250505092915050565b61236c6128f6565b6001600160a01b031661237d61224d565b6001600160a01b0316146123a35760405162461bcd60e51b815260040161077a906131d5565b600a6040518061018001604052806123ca6001600a805490506128ea90919063ffffffff16565b81526020018881526020018781526020018681526020018581526020018481526020016000815260200160008152602001838152602001600115158152602001600015158152602001600067ffffffffffffffff81111561243b57634e487b7160e01b600052604160045260246000fd5b604051908082528060200260200182016040528015612464578160200160208202803683370190505b50905281546001808201845560009384526020938490208351600b90930201918255828401519082015560408201516002820155606082015160038201556080820151600482015560a0820151600582015560c0820151600682015560e0820151600782015561010080830151600883015561012083015160098301805461014086015160ff199091169215159290921761ff00191691151590920217905561016082015180519293919261251f92600a8501920190612a51565b505050505050505050565b6125326128f6565b6001600160a01b031661254361224d565b6001600160a01b0316146125695760405162461bcd60e51b815260040161077a906131d5565b600280546001600160a01b0319166001600160a01b0392909216919091179055565b7f000000000000000000000000000000000000000000000000000000000000000081565b6125b76128f6565b6001600160a01b03166125c861224d565b6001600160a01b0316146125ee5760405162461bcd60e51b815260040161077a906131d5565b60006125fb8260016128c6565b90506000600a828154811061262057634e487b7160e01b600052603260045260246000fd5b90600052602060002090600b0201600a0180548060200260200160405190810160405280929190818152602001828054801561267b57602002820191906000526020600020905b815481526020019060010190808311612667575b505083519394506000925050505b818110156114545760008382815181106126b357634e487b7160e01b600052603260045260246000fd5b60209081029190910181015160009081526007825260408082206001600160a01b038b168352909252208681556001808201805460ff19169091179055426002909101555080612702816135a7565b915050612689565b63bc197c8160e01b95945050505050565b6002546040516370a0823160e01b81526001600160a01b038084169263a9059cbb9291169083906370a0823190612756903090600401613016565b60206040518083038186803b15801561276e57600080fd5b505afa158015612782573d6000803e3d6000fd5b505050506040513d601f19601f820116820180604052508101906127a69190612e76565b6040518363ffffffff1660e01b81526004016127c392919061302a565b602060405180830381600087803b1580156127dd57600080fd5b505af11580156127f1573d6000803e3d6000fd5b505050506040513d601f19601f820116820180604052508101906115f59190612e1a565b6004546001600160a01b031681565b600860209081526000928352604080842090915290825290205460ff1681565b63f23a6e6160e01b95945050505050565b61285d6128f6565b6001600160a01b031661286e61224d565b6001600160a01b0316146128945760405162461bcd60e51b815260040161077a906131d5565b6001600160a01b0381166128ba5760405162461bcd60e51b815260040161077a90613158565b6128c3816128fa565b50565b6000611ac48284613555565b6000611ac48284613536565b6000611ac48284613516565b6000611ac482846134fe565b3390565b600080546001600160a01b038381166001600160a01b0319831681178455604051919092169283917f8be0079c531659141344cd1fd0a4f28419497f9722a3daafe3b4186f6b6457e09190a35050565b604051806101800160405280600081526020016000815260200160008152602001600081526020016000815260200160008152602001600081526020016000815260200160008152602001600015158152602001600015158152602001606081525090565b6040518060e00160405280600081526020016000815260200160008152602001600081526020016000815260200160008152602001606081525090565b828054828255906000526020600020908101928215612a41579160200282015b82811115612a4157825182546001600160a01b0319166001600160a01b03909116178255602090920191600190910190612a0c565b50612a4d929150612a8c565b5090565b828054828255906000526020600020908101928215612a41579160200282015b82811115612a41578251825591602001919060010190612a71565b5b80821115612a4d5760008155600101612a8d565b600082601f830112612ab1578081fd5b81356020612ac6612ac1836134da565b6134b0565b8281528181019085830183850287018401881015612ae2578586fd5b855b85811015612b0057813584529284019290840190600101612ae4565b5090979650505050505050565b600082601f830112612b1d578081fd5b813567ffffffffffffffff811115612b3757612b376135d8565b612b4a601f8201601f19166020016134b0565b818152846020838601011115612b5e578283fd5b816020850160208301379081016020019190915292915050565b600060208284031215612b89578081fd5b8135611ac4816135ee565b600080600080600060a08688031215612bab578081fd5b8535612bb6816135ee565b94506020860135612bc6816135ee565b9350604086013567ffffffffffffffff80821115612be2578283fd5b612bee89838a01612aa1565b94506060880135915080821115612c03578283fd5b612c0f89838a01612aa1565b93506080880135915080821115612c24578283fd5b50612c3188828901612b0d565b9150509295509295909350565b60008060008060808587031215612c53578384fd5b8435612c5e816135ee565b93506020850135612c6e816135ee565b925060408501359150606085013567ffffffffffffffff811115612c90578182fd5b612c9c87828801612b0d565b91505092959194509250565b600080600080600060a08688031215612cbf578081fd5b8535612cca816135ee565b94506020860135612cda816135ee565b93506040860135925060608601359150608086013567ffffffffffffffff811115612d03578182fd5b612c3188828901612b0d565b60008060408385031215612d21578182fd5b8235612d2c816135ee565b946020939093013593505050565b600080600060608486031215612d4e578283fd5b8335612d59816135ee565b9250602084013591506040840135612d7081613603565b809150509250925092565b60008060408385031215612d8d578182fd5b823567ffffffffffffffff811115612da3578283fd5b8301601f81018513612db3578283fd5b80356020612dc3612ac1836134da565b82815281810190848301838502860184018a1015612ddf578788fd5b8795505b84861015612e0a578035612df6816135ee565b835260019590950194918301918301612de3565b5098969091013596505050505050565b600060208284031215612e2b578081fd5b8151611ac481613603565b600060208284031215612e47578081fd5b81356001600160e01b031981168114611ac4578182fd5b600060208284031215612e6f578081fd5b5035919050565b600060208284031215612e87578081fd5b5051919050565b60008060408385031215612ea0578182fd5b823591506020830135612eb2816135ee565b809150509250929050565b60008060408385031215612ecf578182fd5b50508035926020909101359150565b60008060008060808587031215612ef3578182fd5b5050823594602084013594506040840135936060013592509050565b600080600080600060a08688031215612f26578283fd5b505083359560208501359550604085013594606081013594506080013592509050565b60008060008060008060c08789031215612f61578384fd5b505084359660208601359650604086013595606081013595506080810135945060a0013592509050565b600080600080600080600060e0888a031215612fa5578485fd5b505085359760208701359750604087013596606081013596506080810135955060a0810135945060c0013592509050565b6000815180845260208085019450808401835b8381101561300557815187529582019590820190600101612fe9565b509495945050505050565b15159052565b6001600160a01b0391909116815260200190565b6001600160a01b03929092168252602082015260400190565b6001600160a01b0394851681529290931660208301526040820152606081019190915260a06080820181905260009082015260c00190565b600060208252611ac46020830184612fd6565b901515815260200190565b6001600160e01b031991909116815260200190565b6000602080835283518082850152825b818110156130da578581018301518582016040015282016130be565b818111156130eb5783604083870101525b50601f01601f1916929092016040019392505050565b6020808252600f908201526e1b9bdd08195b9bdd59da08199d5b99608a1b604082015260600190565b6020808252601490820152731d5cd95c88185b1c9958591e4818db185a5b595960621b604082015260600190565b60208082526026908201527f4f776e61626c653a206e6577206f776e657220697320746865207a65726f206160408201526564647265737360d01b606082015260800190565b6020808252601d908201527f6e6f74206f6e2074696d6520666f7220636c61696d696e67204e465473000000604082015260600190565b6020808252818101527f4f776e61626c653a2063616c6c6572206973206e6f7420746865206f776e6572604082015260600190565b602080825260129082015271696e73756666696369656e742066756e647360701b604082015260600190565b6020808252600c908201526b125393c81cdbdb19081bdd5d60a21b604082015260600190565b6020808252600c908201526b34b73b30b634b2103ab9b2b960a11b604082015260600190565b6020808252600d908201526c696e76616c696420636c61696d60981b604082015260600190565b6020808252601f908201527f5265656e7472616e637947756172643a207265656e7472616e742063616c6c00604082015260600190565b6020808252600c908201526b696e76616c69642074696d6560a01b604082015260600190565b6020808252600c908201526b1a5b9d985b1a59081c1bdbdb60a21b604082015260600190565b60006020825282516020830152602083015160408301526040830151606083015260608301516080830152608083015160a083015260a083015160c083015260c083015160e083015260e08301516101008181850152808501519150506101208181850152808501519150506101406133a781850183613010565b84015190506101606133bb84820183613010565b8401516101808481015290506133d56101a0840182612fd6565b949350505050565b6000602080835261010083018451828501528185015160408501526040850151606085015260608501516080850152608085015160a085015260a085015160c085015260c085015160e0808601528181518084526101208701915084830193508592505b8083101561346a5783516001600160a01b03168252928401926001929092019190840190613441565b509695505050505050565b90815260200190565b9687529415156020870152604086019390935260608501919091521515608084015260a083015260c082015260e00190565b60405181810167ffffffffffffffff811182821017156134d2576134d26135d8565b604052919050565b600067ffffffffffffffff8211156134f4576134f46135d8565b5060209081020190565b60008219821115613511576135116135c2565b500190565b60008261353157634e487b7160e01b81526012600452602481fd5b500490565b6000816000190483118215151615613550576135506135c2565b500290565b600082821015613567576135676135c2565b500390565b60028104600182168061358057607f821691505b602082108114156135a157634e487b7160e01b600052602260045260246000fd5b50919050565b60006000198214156135bb576135bb6135c2565b5060010190565b634e487b7160e01b600052601160045260246000fd5b634e487b7160e01b600052604160045260246000fd5b6001600160a01b03811681146128c357600080fd5b80151581146128c357600080fdfea2646970667358221220e7fd64ceac62f7144cb980922f978ad57b2b5e9af578dd59467c3ab3b745672164736f6c63430008000033",
  "immutableReferences": {
    "2352": [
      {
        "length": 32,
        "start": 3159
      },
      {
        "length": 32,
        "start": 3293
      },
      {
        "length": 32,
        "start": 5301
      },
      {
        "length": 32,
        "start": 5460
      },
      {
        "length": 32,
        "start": 9613
      }
    ]
  },
  "source": "// SPDX-License-Identifier: MIT\r\npragma solidity ^0.8.0;\r\n\r\nimport \"@openzeppelin/contracts/token/ERC1155/ERC1155.sol\";\r\nimport \"@openzeppelin/contracts/token/ERC1155/IERC1155Receiver.sol\";\r\n// import \"@openzeppelin/contracts/token/ERC1155/IERC1155Receiver.sol\";\r\nimport \"@openzeppelin/contracts/utils/Counters.sol\";\r\nimport \"@openzeppelin/contracts/access/Ownable.sol\";\r\nimport \"@openzeppelin/contracts/utils/math/SafeMath.sol\";\r\nimport \"@openzeppelin/contracts/utils/Strings.sol\";\r\nimport \"./lib/IWETH.sol\";\r\nimport \"./lib/IERC20.sol\";\r\nimport \"./ReentrancyGuard.sol\";\r\nimport \"./PolkaBridgeNFT.sol\";\r\n\r\ncontract PolkaBridgeINO is Ownable, ReentrancyGuard, IERC1155Receiver {\r\n    using SafeMath for uint256;\r\n    using Strings for uint256;\r\n    using Counters for Counters.Counter;\r\n    address public immutable WETH;\r\n    address payable Owner;\r\n    // address payable private ReceiveToken;\r\n    Counters.Counter private tokenCounter;\r\n    PolkaBridgeNFT public polkaBridgeNFT;\r\n    // Contract name\r\n    string public name;\r\n    // Contract symbol\r\n    string public symbol;\r\n\r\n    constructor(\r\n        // address payable _receiveToken,\r\n        PolkaBridgeNFT _polkaBridgeNFT,\r\n        address payable _owner,\r\n        address _WETH,\r\n        string memory _name,\r\n        string memory _symbol\r\n    ) // string memory _uri\r\n    {\r\n        // ReceiveToken = _receiveToken;\r\n        Owner = payable(_owner);\r\n        WETH = _WETH;\r\n        name = _name;\r\n        symbol = _symbol;\r\n        polkaBridgeNFT = _polkaBridgeNFT;\r\n\r\n        // polkaBridgeNFT.setURI(_uri);\r\n    }\r\n\r\n    receive() external payable {}\r\n\r\n    // Pool for INO\r\n    struct INOPool {\r\n        uint256 Id;\r\n        uint256 Begin;\r\n        uint256 End;\r\n        uint256 Type; // 1:public, 2:private\r\n        uint256 AmountPBRRequire; //must e18,important when init\r\n        uint256 LockDuration; //lock after purchase\r\n        uint256 ActivedDate;\r\n        uint256 StopDate;\r\n        uint256 claimType; // 1: claim in PBR INO, 2: claim in other project\r\n        bool IsActived;\r\n        bool IsStopped;\r\n        uint256[] PackageIds;\r\n    }\r\n    // Package\r\n    struct Package {\r\n        uint256 Id;\r\n        uint256 PoolId;\r\n        uint256 TotalSoldCount;\r\n        uint256 MinimumTokenSoldout;\r\n        uint256 TotalItemCount;\r\n        uint256 RatePerETH; // times 1e18\r\n        address[] UsersPurchased;\r\n    }\r\n    // User\r\n    struct User {\r\n        uint256 Id;\r\n        bool IsWhitelist;\r\n        uint256 WhitelistDate;\r\n        uint256 PurchaseTime;\r\n        bool IsClaimed;\r\n        uint256 TotalETHPurchase;\r\n        uint256 PurchasedItemCount;\r\n        uint256[] PurchasedPackageIds;\r\n    }\r\n    mapping(uint256 => mapping(address => User)) public whitelist; // (packageId, userId) -> listuser\r\n    mapping(uint256 => mapping(address => bool)) public purchasecheck; // (packageId, userId) -> purchasecheck\r\n    mapping(address => mapping(uint256 => User)) private users; // (userId, poolId) -> user\r\n    INOPool[] pools;\r\n    Package[] packages;\r\n\r\n    // function setURI(string memory uri_) external onlyOwner {\r\n    //     _setURI(uri_);\r\n    // }\r\n    function changeOwner(address payable _owner) external onlyOwner {\r\n        Owner = payable(_owner);\r\n    }\r\n\r\n    // function setURI(string memory _uri) external onlyOwner {\r\n    //     polkaBridgeNFT.setURI(_uri);\r\n    // }\r\n\r\n    // function getURI(uint256 _id) external view returns(string memory) {\r\n    //     return polkaBridgeNFT.uri(_id);\r\n    // }\r\n\r\n    function poolLength() external view returns (uint256) {\r\n        return pools.length;\r\n    }\r\n\r\n    function packageLength() external view returns (uint256) {\r\n        return packages.length;\r\n    }\r\n\r\n    // Add Whitelist function\r\n    function addWhitelist(address user, uint256 pid) public onlyOwner {\r\n        uint256 poolIndex = pid.sub(1);\r\n        uint256[] memory packageIds = pools[poolIndex].PackageIds;\r\n        uint256 packagesLength = packageIds.length;\r\n        for (uint256 i = 0; i < packagesLength; i++) {\r\n            uint256 packageId = packageIds[i];\r\n            whitelist[packageId][user].Id = pid;\r\n            whitelist[packageId][user].IsWhitelist = true;\r\n            whitelist[packageId][user].WhitelistDate = block.timestamp;\r\n        }\r\n    }\r\n\r\n    // Add Multiple Whitelist function\r\n    function addMulWhitelist(address[] memory user, uint256 pid)\r\n        public\r\n        onlyOwner\r\n    {\r\n        uint256 poolIndex = pid.sub(1);\r\n        uint256[] memory packageIds = pools[poolIndex].PackageIds;\r\n        uint256 packagesLength = packageIds.length;\r\n        for (uint256 i = 0; i < user.length; i++) {\r\n            for (uint256 j = 0; j < packagesLength; j++) {\r\n                uint256 packageId = packageIds[j];\r\n                whitelist[packageId][user[i]].Id = pid;\r\n                whitelist[packageId][user[i]].IsWhitelist = true;\r\n                whitelist[packageId][user[i]].WhitelistDate = block.timestamp;\r\n            }\r\n        }\r\n    }\r\n\r\n    // Update existing user whitelist condition\r\n    function updateWhitelist(\r\n        address user,\r\n        uint256 pid,\r\n        bool isWhitelist\r\n    ) public onlyOwner {\r\n        uint256 poolIndex = pid.sub(1);\r\n        uint256[] memory packageIds = pools[poolIndex].PackageIds;\r\n        uint256 packagesLength = packageIds.length;\r\n        for (uint256 i = 0; i < packagesLength; i++) {\r\n            uint256 packageId = packageIds[i];\r\n            whitelist[packageId][user].IsWhitelist = isWhitelist;\r\n        }\r\n    }\r\n\r\n    // Check if user IsWhitelist\r\n    function IsWhitelist(address user, uint256 pid) public view returns (bool) {\r\n        uint256 poolIndex = pid.sub(1);\r\n        uint256[] memory packageIds = pools[poolIndex].PackageIds;\r\n        return whitelist[packageIds[0]][user].IsWhitelist;\r\n    }\r\n\r\n    //Add package to pool\r\n    function addPackageToPool(\r\n        uint256 _PoolId,\r\n        uint256 _MinimumTokenSoldout,\r\n        uint256 _TotalItemCount,\r\n        uint256 _RatePerETH\r\n    ) public onlyOwner {\r\n        uint256 id = packages.length.add(1);\r\n        packages.push(\r\n            Package({\r\n                Id: id,\r\n                PoolId: _PoolId,\r\n                TotalSoldCount: 0,\r\n                MinimumTokenSoldout: _MinimumTokenSoldout,\r\n                TotalItemCount: _TotalItemCount,\r\n                RatePerETH: _RatePerETH,\r\n                UsersPurchased: new address[](0)\r\n            })\r\n        );\r\n        uint256 poolIndex = _PoolId.sub(1);\r\n        pools[poolIndex].PackageIds.push(id);\r\n    }\r\n\r\n    //Add Pool\r\n    function addPool(\r\n        uint256 _Begin,\r\n        uint256 _End,\r\n        uint256 _Type, //1:public, 2:private\r\n        uint256 _AmountPBRRequire, //must e18,important when init\r\n        uint256 _LockDuration, //lock after purchase\r\n        uint256 _claimType\r\n    ) public onlyOwner {\r\n        pools.push(\r\n            INOPool({\r\n                Id: pools.length.add(1),\r\n                Begin: _Begin,\r\n                End: _End,\r\n                Type: _Type, //1:public, 2:private\r\n                AmountPBRRequire: _AmountPBRRequire, //must e18,important when init\r\n                LockDuration: _LockDuration, //lock after purchase\r\n                ActivedDate: 0,\r\n                StopDate: 0,\r\n                IsActived: true,\r\n                IsStopped: false,\r\n                claimType: _claimType,\r\n                PackageIds: new uint256[](0)\r\n            })\r\n        );\r\n    }\r\n\r\n    // Update the pool\r\n    function updatePool(\r\n        uint256 pid,\r\n        uint256 _Begin,\r\n        uint256 _End,\r\n        uint256 _Type,\r\n        uint256 _AmountPBRRequire,\r\n        uint256 _LockDuration,\r\n        uint256 _claimType\r\n    ) public onlyOwner {\r\n        // require(_claimType == 1 || _claimType == 2, \"invalid claim type\");\r\n        uint256 poolIndex = pid.sub(1);\r\n        pools[poolIndex].claimType = _claimType;\r\n        if (_Begin > 0) {\r\n            pools[poolIndex].Begin = _Begin;\r\n        }\r\n        if (_End > 0) {\r\n            pools[poolIndex].End = _End;\r\n        }\r\n        if (_Type > 0) {\r\n            pools[poolIndex].Type = _Type;\r\n        }\r\n        if (_AmountPBRRequire > 0) {\r\n            pools[poolIndex].AmountPBRRequire = _AmountPBRRequire;\r\n        }\r\n        if (_LockDuration > 0) {\r\n            pools[poolIndex].LockDuration = _LockDuration;\r\n        }\r\n    }\r\n\r\n    // Stopping the pool\r\n    function stopPool(uint256 pid) public onlyOwner {\r\n        uint256 poolIndex = pid.sub(1);\r\n        pools[poolIndex].IsActived = false;\r\n        pools[poolIndex].IsStopped = true;\r\n        pools[poolIndex].StopDate = block.timestamp;\r\n    }\r\n\r\n    // Activating the pool\r\n    function activePool(uint256 pid) public onlyOwner {\r\n        uint256 poolIndex = pid.sub(1);\r\n        pools[poolIndex].IsActived = true;\r\n        pools[poolIndex].IsStopped = false;\r\n        pools[poolIndex].ActivedDate = block.timestamp;\r\n        pools[poolIndex].StopDate = 0;\r\n    }\r\n\r\n    //Update package\r\n    function updatePackage(\r\n        uint256 _PackageId,\r\n        uint256 _PoolId,\r\n        uint256 _MinimumTokenSoldout,\r\n        uint256 _TotalItemCount,\r\n        uint256 _RatePerETH\r\n    ) public onlyOwner {\r\n        uint256 packageIndex = _PackageId.sub(1);\r\n        packages[packageIndex].PoolId = _PoolId;\r\n        if (_MinimumTokenSoldout > 0) {\r\n            packages[packageIndex].MinimumTokenSoldout = _MinimumTokenSoldout;\r\n        }\r\n        if (_TotalItemCount > 0) {\r\n            packages[packageIndex].TotalItemCount = _TotalItemCount;\r\n        }\r\n        if (_RatePerETH > 0) {\r\n            packages[packageIndex].RatePerETH = _RatePerETH;\r\n        }\r\n    }\r\n\r\n    function getBalanceItemByPackageId(uint256 packageId)\r\n        public\r\n        view\r\n        returns (uint256)\r\n    {\r\n        uint256 packageIndex = packageId.sub(1);\r\n        return packages[packageIndex].TotalItemCount;\r\n    }\r\n\r\n    function getRemainINOToken(uint256 packageId)\r\n        public\r\n        view\r\n        returns (uint256)\r\n    {\r\n        uint256 packageIndex = packageId.sub(1);\r\n        return\r\n            packages[packageIndex].TotalItemCount.sub(\r\n                packages[packageIndex].TotalSoldCount\r\n            );\r\n    }\r\n\r\n    // To Do: Purchase function\r\n    function purchaseINO(uint256 packageId, uint256 quantity)\r\n        public\r\n        payable\r\n        nonReentrant\r\n    {\r\n        uint256 packageIndex = packageId.sub(1);\r\n        uint256 poolId = packages[packageIndex].PoolId;\r\n        uint256 poolIndex = poolId.sub(1);\r\n        require(pools[poolIndex].IsActived, \"invalid pool\");\r\n        require(\r\n            block.timestamp >= pools[poolIndex].Begin &&\r\n                block.timestamp <= pools[poolIndex].End,\r\n            \"invalid time\"\r\n        );\r\n        // check user\r\n        if (pools[poolIndex].Type == 2)\r\n            //private\r\n            require(IsWhitelist(msg.sender, poolId), \"invalid user\");\r\n        // check eth\r\n        uint256 ethAmount = msg.value;\r\n        uint256 calcItemAmount = ethAmount\r\n            .mul(packages[packageIndex].RatePerETH)\r\n            .div(1e18);\r\n        require(calcItemAmount >= quantity, \"insufficient funds\");\r\n        uint256 restETH;\r\n        if (calcItemAmount > quantity)\r\n            restETH =\r\n                ethAmount -\r\n                quantity\r\n                    .mul(uint256(1).div(packages[packageIndex].RatePerETH))\r\n                    .mul(1e18);\r\n        // check remained token\r\n        uint256 remainToken = getRemainINOToken(packageId);\r\n        require(\r\n            remainToken > packages[packageIndex].MinimumTokenSoldout,\r\n            \"INO sold out\"\r\n        );\r\n        require(remainToken >= quantity, \"INO sold out\");\r\n        whitelist[packageId][msg.sender].TotalETHPurchase = whitelist[\r\n            packageId\r\n        ][msg.sender].TotalETHPurchase.add(ethAmount);\r\n        whitelist[packageId][msg.sender].PurchasedItemCount = whitelist[\r\n            packageId\r\n        ][msg.sender].PurchasedItemCount.add(quantity);\r\n        whitelist[packageId][msg.sender].PurchaseTime = block.timestamp;\r\n        if (!purchasecheck[packageId][msg.sender]) {\r\n            packages[packageIndex].UsersPurchased.push(msg.sender);\r\n            purchasecheck[packageId][msg.sender] = true;\r\n            users[msg.sender][poolId].PurchasedPackageIds.push(packageId);\r\n        }\r\n        packages[packageIndex].TotalSoldCount = packages[packageIndex]\r\n            .TotalSoldCount\r\n            .add(quantity);\r\n        IWETH(WETH).deposit{value: ethAmount}();\r\n        IWETH(WETH).withdraw(restETH);\r\n        payable(msg.sender).transfer(restETH);\r\n    }\r\n\r\n    // To Do: Claim Pool\r\n    function claimPool(uint256 pid) public nonReentrant {\r\n        uint256 poolIndex = pid.sub(1);\r\n        //check user\r\n        require(pools[poolIndex].claimType == 1, \"invalid claim\");\r\n        if (pools[poolIndex].Type == 2)\r\n            //private\r\n            require(IsWhitelist(msg.sender, pid), \"invalid user\");\r\n        require(\r\n            block.timestamp >\r\n                pools[poolIndex].End.add(pools[poolIndex].LockDuration),\r\n            \"not on time for claiming NFTs\"\r\n        );\r\n        uint256[] memory packageIds = users[msg.sender][pid]\r\n            .PurchasedPackageIds;\r\n        uint256 packagesLength = packageIds.length;\r\n        require(\r\n            !whitelist[packageIds[0]][msg.sender].IsClaimed,\r\n            \"user already claimed\"\r\n        );\r\n        for (uint256 i = 0; i < packagesLength; i++) {\r\n            uint256 packageId = packageIds[i];\r\n            if (purchasecheck[packageId][msg.sender]) {\r\n                uint256 itemCount = whitelist[packageId][msg.sender]\r\n                    .PurchasedItemCount;\r\n                // _mint(msg.sender, packageId, itemCount, '');\r\n                // polkaBridgeNFT.mintNFT(msg.sender, packageId, itemCount);\r\n                IERC1155(polkaBridgeNFT).safeTransferFrom(\r\n                    address(this),\r\n                    msg.sender,\r\n                    packageId,\r\n                    itemCount,\r\n                    \"\"\r\n                );\r\n                whitelist[packageId][msg.sender].IsClaimed = true;\r\n            }\r\n        }\r\n    }\r\n\r\n    function onERC1155Received(\r\n        address,\r\n        address,\r\n        uint256,\r\n        uint256,\r\n        bytes memory\r\n    ) public virtual override returns (bytes4) {\r\n        return this.onERC1155Received.selector;\r\n    }\r\n\r\n    function onERC1155BatchReceived(\r\n        address,\r\n        address,\r\n        uint256[] memory,\r\n        uint256[] memory,\r\n        bytes memory\r\n    ) public virtual override returns (bytes4) {\r\n        return this.onERC1155BatchReceived.selector;\r\n    }\r\n\r\n    function onERC721Received(\r\n        address,\r\n        address,\r\n        uint256,\r\n        bytes memory\r\n    ) public virtual returns (bytes4) {\r\n        return this.onERC721Received.selector;\r\n    }\r\n\r\n    function supportsInterface(bytes4 interfaceId)\r\n        external\r\n        pure\r\n        override\r\n        returns (bool)\r\n    {\r\n        return interfaceId == this.supportsInterface.selector;\r\n    }\r\n\r\n    function getPoolInfo(uint256 pid)\r\n        public\r\n        view\r\n        returns (INOPool memory retSt)\r\n    {\r\n        uint256 poolIndex = pid.sub(1);\r\n        return pools[poolIndex];\r\n    }\r\n\r\n    function getPackageInfo(uint256 packageId)\r\n        public\r\n        view\r\n        returns (Package memory retSt)\r\n    {\r\n        uint256 packageIndex = packageId.sub(1);\r\n        return packages[packageIndex];\r\n    }\r\n\r\n    function getPurchasedPackageIds(address user_, uint256 pid)\r\n        public\r\n        view\r\n        returns (uint256[] memory)\r\n    {\r\n        return users[user_][pid].PurchasedPackageIds;\r\n    }\r\n\r\n    //withdraw ETH after INO\r\n    function withdrawPoolFund() public onlyOwner {\r\n        uint256 ETHbalance = IERC20(WETH).balanceOf(address(this));\r\n        // IWETH(WETH).transfer(Owner, ETHbalance);\r\n        IWETH(WETH).withdraw(ETHbalance);\r\n        Owner.transfer(ETHbalance);\r\n    }\r\n\r\n    //withdraw ETH after IDO\r\n    function withdrawETHFund() public onlyOwner {\r\n        uint256 balance = address(this).balance;\r\n        require(balance > 0, \"not enough fund\");\r\n        Owner.transfer(balance);\r\n    }\r\n\r\n    function withdrawErc20(IERC20 token) public {\r\n        token.transfer(Owner, token.balanceOf(address(this)));\r\n    }\r\n}\r\n",
  "sourcePath": "C:\\Users\\Thanh Phi\\Desktop\\PolkaBridgeSolution\\polkabridge-ino\\INO\\contracts\\PolkaBridgeINO.sol",
  "compiler": {
    "name": "solc",
    "version": "0.8.0+commit.c7dfd78e.Emscripten.clang"
  },
  "schemaVersion": "3.4.5",
  "updatedAt": "2022-03-21T09:36:34.060Z",
  "networkType": "ethereum",
  "devdoc": {
    "kind": "dev",
    "methods": {
      "owner()": {
        "details": "Returns the address of the current owner."
      },
      "renounceOwnership()": {
        "details": "Leaves the contract without owner. It will not be possible to call `onlyOwner` functions anymore. Can only be called by the current owner. NOTE: Renouncing ownership will leave the contract without an owner, thereby removing any functionality that is only available to the owner."
      },
      "supportsInterface(bytes4)": {
        "details": "Returns true if this contract implements the interface defined by `interfaceId`. See the corresponding https://eips.ethereum.org/EIPS/eip-165#how-interfaces-are-identified[EIP section] to learn more about how these ids are created. This function call must use less than 30 000 gas."
      },
      "transferOwnership(address)": {
        "details": "Transfers ownership of the contract to a new account (`newOwner`). Can only be called by the current owner."
      }
    },
    "version": 1
  },
  "userdoc": {
    "kind": "user",
    "methods": {},
    "version": 1
  }
}