{
  "contractName": "PolkaBridgeINO",
  "abi": [
    {
      "inputs": [
        {
          "internalType": "contract PolkaBridgeNFT",
          "name": "_polkaBridgeNFT",
          "type": "address"
        },
        {
          "internalType": "address payable",
          "name": "_owner",
          "type": "address"
        },
        {
          "internalType": "address",
          "name": "_WETH",
          "type": "address"
        }
      ],
      "stateMutability": "nonpayable",
      "type": "constructor"
    },
    {
      "anonymous": false,
      "inputs": [
        {
          "indexed": true,
          "internalType": "address",
          "name": "previousOwner",
          "type": "address"
        },
        {
          "indexed": true,
          "internalType": "address",
          "name": "newOwner",
          "type": "address"
        }
      ],
      "name": "OwnershipTransferred",
      "type": "event"
    },
    {
      "inputs": [],
      "name": "WETH",
      "outputs": [
        {
          "internalType": "address",
          "name": "",
          "type": "address"
        }
      ],
      "stateMutability": "view",
      "type": "function",
      "constant": true
    },
    {
      "inputs": [],
      "name": "name",
      "outputs": [
        {
          "internalType": "string",
          "name": "",
          "type": "string"
        }
      ],
      "stateMutability": "view",
      "type": "function",
      "constant": true
    },
    {
      "inputs": [],
      "name": "owner",
      "outputs": [
        {
          "internalType": "address",
          "name": "",
          "type": "address"
        }
      ],
      "stateMutability": "view",
      "type": "function",
      "constant": true
    },
    {
      "inputs": [],
      "name": "polkaBridgeNFT",
      "outputs": [
        {
          "internalType": "contract PolkaBridgeNFT",
          "name": "",
          "type": "address"
        }
      ],
      "stateMutability": "view",
      "type": "function",
      "constant": true
    },
    {
      "inputs": [
        {
          "internalType": "uint256",
          "name": "",
          "type": "uint256"
        },
        {
          "internalType": "address",
          "name": "",
          "type": "address"
        }
      ],
      "name": "purchasecheck",
      "outputs": [
        {
          "internalType": "bool",
          "name": "",
          "type": "bool"
        }
      ],
      "stateMutability": "view",
      "type": "function",
      "constant": true
    },
    {
      "inputs": [],
      "name": "renounceOwnership",
      "outputs": [],
      "stateMutability": "nonpayable",
      "type": "function"
    },
    {
      "inputs": [
        {
          "internalType": "address",
          "name": "newOwner",
          "type": "address"
        }
      ],
      "name": "transferOwnership",
      "outputs": [],
      "stateMutability": "nonpayable",
      "type": "function"
    },
    {
      "inputs": [
        {
          "internalType": "uint256",
          "name": "",
          "type": "uint256"
        },
        {
          "internalType": "address",
          "name": "",
          "type": "address"
        }
      ],
      "name": "whitelist",
      "outputs": [
        {
          "internalType": "uint256",
          "name": "Id",
          "type": "uint256"
        },
        {
          "internalType": "bool",
          "name": "IsWhitelist",
          "type": "bool"
        },
        {
          "internalType": "uint256",
          "name": "WhitelistDate",
          "type": "uint256"
        },
        {
          "internalType": "uint256",
          "name": "PurchaseTime",
          "type": "uint256"
        },
        {
          "internalType": "bool",
          "name": "IsClaimed",
          "type": "bool"
        },
        {
          "internalType": "uint256",
          "name": "TotalETHPurchase",
          "type": "uint256"
        },
        {
          "internalType": "uint256",
          "name": "PurchasedItemCount",
          "type": "uint256"
        }
      ],
      "stateMutability": "view",
      "type": "function",
      "constant": true
    },
    {
      "stateMutability": "payable",
      "type": "receive",
      "payable": true
    },
    {
      "inputs": [
        {
          "internalType": "address payable",
          "name": "_owner",
          "type": "address"
        }
      ],
      "name": "changeOwner",
      "outputs": [],
      "stateMutability": "nonpayable",
      "type": "function"
    },
    {
      "inputs": [],
      "name": "poolLength",
      "outputs": [
        {
          "internalType": "uint256",
          "name": "",
          "type": "uint256"
        }
      ],
      "stateMutability": "view",
      "type": "function",
      "constant": true
    },
    {
      "inputs": [],
      "name": "packageLength",
      "outputs": [
        {
          "internalType": "uint256",
          "name": "",
          "type": "uint256"
        }
      ],
      "stateMutability": "view",
      "type": "function",
      "constant": true
    },
    {
      "inputs": [
        {
          "internalType": "address",
          "name": "user",
          "type": "address"
        },
        {
          "internalType": "uint256",
          "name": "pid",
          "type": "uint256"
        }
      ],
      "name": "addWhitelist",
      "outputs": [],
      "stateMutability": "nonpayable",
      "type": "function"
    },
    {
      "inputs": [
        {
          "internalType": "address[]",
          "name": "user",
          "type": "address[]"
        },
        {
          "internalType": "uint256",
          "name": "pid",
          "type": "uint256"
        }
      ],
      "name": "addMulWhitelist",
      "outputs": [],
      "stateMutability": "nonpayable",
      "type": "function"
    },
    {
      "inputs": [
        {
          "internalType": "address",
          "name": "user",
          "type": "address"
        },
        {
          "internalType": "uint256",
          "name": "pid",
          "type": "uint256"
        },
        {
          "internalType": "bool",
          "name": "isWhitelist",
          "type": "bool"
        }
      ],
      "name": "updateWhitelist",
      "outputs": [],
      "stateMutability": "nonpayable",
      "type": "function"
    },
    {
      "inputs": [
        {
          "internalType": "address",
          "name": "user",
          "type": "address"
        },
        {
          "internalType": "uint256",
          "name": "pid",
          "type": "uint256"
        }
      ],
      "name": "IsWhitelist",
      "outputs": [
        {
          "internalType": "bool",
          "name": "",
          "type": "bool"
        }
      ],
      "stateMutability": "view",
      "type": "function",
      "constant": true
    },
    {
      "inputs": [
        {
          "internalType": "uint256",
          "name": "_PoolId",
          "type": "uint256"
        },
        {
          "internalType": "uint256",
          "name": "_MinimumTokenSoldout",
          "type": "uint256"
        },
        {
          "internalType": "uint256",
          "name": "_TotalItemCount",
          "type": "uint256"
        },
        {
          "internalType": "uint256",
          "name": "_RatePerETH",
          "type": "uint256"
        }
      ],
      "name": "addPackageToPool",
      "outputs": [],
      "stateMutability": "nonpayable",
      "type": "function"
    },
    {
      "inputs": [
        {
          "internalType": "uint256",
          "name": "_Begin",
          "type": "uint256"
        },
        {
          "internalType": "uint256",
          "name": "_End",
          "type": "uint256"
        },
        {
          "internalType": "uint256",
          "name": "_Type",
          "type": "uint256"
        },
        {
          "internalType": "uint256",
          "name": "_AmountPBRRequire",
          "type": "uint256"
        },
        {
          "internalType": "uint256",
          "name": "_LockDuration",
          "type": "uint256"
        },
        {
          "internalType": "uint256",
          "name": "_claimType",
          "type": "uint256"
        }
      ],
      "name": "addPool",
      "outputs": [],
      "stateMutability": "nonpayable",
      "type": "function"
    },
    {
      "inputs": [
        {
          "internalType": "uint256",
          "name": "pid",
          "type": "uint256"
        },
        {
          "internalType": "uint256",
          "name": "_Begin",
          "type": "uint256"
        },
        {
          "internalType": "uint256",
          "name": "_End",
          "type": "uint256"
        },
        {
          "internalType": "uint256",
          "name": "_Type",
          "type": "uint256"
        },
        {
          "internalType": "uint256",
          "name": "_AmountPBRRequire",
          "type": "uint256"
        },
        {
          "internalType": "uint256",
          "name": "_LockDuration",
          "type": "uint256"
        },
        {
          "internalType": "uint256",
          "name": "_claimType",
          "type": "uint256"
        }
      ],
      "name": "updatePool",
      "outputs": [],
      "stateMutability": "nonpayable",
      "type": "function"
    },
    {
      "inputs": [
        {
          "internalType": "uint256",
          "name": "pid",
          "type": "uint256"
        }
      ],
      "name": "stopPool",
      "outputs": [],
      "stateMutability": "nonpayable",
      "type": "function"
    },
    {
      "inputs": [
        {
          "internalType": "uint256",
          "name": "pid",
          "type": "uint256"
        }
      ],
      "name": "activePool",
      "outputs": [],
      "stateMutability": "nonpayable",
      "type": "function"
    },
    {
      "inputs": [
        {
          "internalType": "uint256",
          "name": "_PackageId",
          "type": "uint256"
        },
        {
          "internalType": "uint256",
          "name": "_PoolId",
          "type": "uint256"
        },
        {
          "internalType": "uint256",
          "name": "_MinimumTokenSoldout",
          "type": "uint256"
        },
        {
          "internalType": "uint256",
          "name": "_TotalItemCount",
          "type": "uint256"
        },
        {
          "internalType": "uint256",
          "name": "_RatePerETH",
          "type": "uint256"
        }
      ],
      "name": "updatePackage",
      "outputs": [],
      "stateMutability": "nonpayable",
      "type": "function"
    },
    {
      "inputs": [
        {
          "internalType": "uint256",
          "name": "packageId",
          "type": "uint256"
        }
      ],
      "name": "getBalanceItemByPackageId",
      "outputs": [
        {
          "internalType": "uint256",
          "name": "",
          "type": "uint256"
        }
      ],
      "stateMutability": "view",
      "type": "function",
      "constant": true
    },
    {
      "inputs": [
        {
          "internalType": "uint256",
          "name": "packageId",
          "type": "uint256"
        }
      ],
      "name": "getRemainINOToken",
      "outputs": [
        {
          "internalType": "uint256",
          "name": "",
          "type": "uint256"
        }
      ],
      "stateMutability": "view",
      "type": "function",
      "constant": true
    },
    {
      "inputs": [
        {
          "internalType": "uint256",
          "name": "packageId",
          "type": "uint256"
        },
        {
          "internalType": "uint256",
          "name": "quantity",
          "type": "uint256"
        }
      ],
      "name": "purchaseINO",
      "outputs": [],
      "stateMutability": "payable",
      "type": "function",
      "payable": true
    },
    {
      "inputs": [
        {
          "internalType": "uint256",
          "name": "pid",
          "type": "uint256"
        }
      ],
      "name": "claimPool",
      "outputs": [],
      "stateMutability": "nonpayable",
      "type": "function"
    },
    {
      "inputs": [
        {
          "internalType": "address",
          "name": "",
          "type": "address"
        },
        {
          "internalType": "address",
          "name": "",
          "type": "address"
        },
        {
          "internalType": "uint256",
          "name": "",
          "type": "uint256"
        },
        {
          "internalType": "uint256",
          "name": "",
          "type": "uint256"
        },
        {
          "internalType": "bytes",
          "name": "",
          "type": "bytes"
        }
      ],
      "name": "onERC1155Received",
      "outputs": [
        {
          "internalType": "bytes4",
          "name": "",
          "type": "bytes4"
        }
      ],
      "stateMutability": "nonpayable",
      "type": "function"
    },
    {
      "inputs": [
        {
          "internalType": "address",
          "name": "",
          "type": "address"
        },
        {
          "internalType": "address",
          "name": "",
          "type": "address"
        },
        {
          "internalType": "uint256[]",
          "name": "",
          "type": "uint256[]"
        },
        {
          "internalType": "uint256[]",
          "name": "",
          "type": "uint256[]"
        },
        {
          "internalType": "bytes",
          "name": "",
          "type": "bytes"
        }
      ],
      "name": "onERC1155BatchReceived",
      "outputs": [
        {
          "internalType": "bytes4",
          "name": "",
          "type": "bytes4"
        }
      ],
      "stateMutability": "nonpayable",
      "type": "function"
    },
    {
      "inputs": [
        {
          "internalType": "address",
          "name": "",
          "type": "address"
        },
        {
          "internalType": "address",
          "name": "",
          "type": "address"
        },
        {
          "internalType": "uint256",
          "name": "",
          "type": "uint256"
        },
        {
          "internalType": "bytes",
          "name": "",
          "type": "bytes"
        }
      ],
      "name": "onERC721Received",
      "outputs": [
        {
          "internalType": "bytes4",
          "name": "",
          "type": "bytes4"
        }
      ],
      "stateMutability": "nonpayable",
      "type": "function"
    },
    {
      "inputs": [
        {
          "internalType": "bytes4",
          "name": "interfaceId",
          "type": "bytes4"
        }
      ],
      "name": "supportsInterface",
      "outputs": [
        {
          "internalType": "bool",
          "name": "",
          "type": "bool"
        }
      ],
      "stateMutability": "pure",
      "type": "function",
      "constant": true
    },
    {
      "inputs": [
        {
          "internalType": "uint256",
          "name": "pid",
          "type": "uint256"
        }
      ],
      "name": "getPoolInfo",
      "outputs": [
        {
          "components": [
            {
              "internalType": "uint256",
              "name": "Id",
              "type": "uint256"
            },
            {
              "internalType": "uint256",
              "name": "Begin",
              "type": "uint256"
            },
            {
              "internalType": "uint256",
              "name": "End",
              "type": "uint256"
            },
            {
              "internalType": "uint256",
              "name": "Type",
              "type": "uint256"
            },
            {
              "internalType": "uint256",
              "name": "AmountPBRRequire",
              "type": "uint256"
            },
            {
              "internalType": "uint256",
              "name": "LockDuration",
              "type": "uint256"
            },
            {
              "internalType": "uint256",
              "name": "ActivedDate",
              "type": "uint256"
            },
            {
              "internalType": "uint256",
              "name": "StopDate",
              "type": "uint256"
            },
            {
              "internalType": "uint256",
              "name": "claimType",
              "type": "uint256"
            },
            {
              "internalType": "bool",
              "name": "IsActived",
              "type": "bool"
            },
            {
              "internalType": "bool",
              "name": "IsStopped",
              "type": "bool"
            },
            {
              "internalType": "uint256[]",
              "name": "PackageIds",
              "type": "uint256[]"
            }
          ],
          "internalType": "struct PolkaBridgeINO.INOPool",
          "name": "retSt",
          "type": "tuple"
        }
      ],
      "stateMutability": "view",
      "type": "function",
      "constant": true
    },
    {
      "inputs": [
        {
          "internalType": "uint256",
          "name": "packageId",
          "type": "uint256"
        }
      ],
      "name": "getPackageInfo",
      "outputs": [
        {
          "components": [
            {
              "internalType": "uint256",
              "name": "Id",
              "type": "uint256"
            },
            {
              "internalType": "uint256",
              "name": "PoolId",
              "type": "uint256"
            },
            {
              "internalType": "uint256",
              "name": "TotalSoldCount",
              "type": "uint256"
            },
            {
              "internalType": "uint256",
              "name": "MinimumTokenSoldout",
              "type": "uint256"
            },
            {
              "internalType": "uint256",
              "name": "TotalItemCount",
              "type": "uint256"
            },
            {
              "internalType": "uint256",
              "name": "RatePerETH",
              "type": "uint256"
            },
            {
              "internalType": "address[]",
              "name": "UsersPurchased",
              "type": "address[]"
            }
          ],
          "internalType": "struct PolkaBridgeINO.Package",
          "name": "retSt",
          "type": "tuple"
        }
      ],
      "stateMutability": "view",
      "type": "function",
      "constant": true
    },
    {
      "inputs": [
        {
          "internalType": "address",
          "name": "user_",
          "type": "address"
        },
        {
          "internalType": "uint256",
          "name": "pid",
          "type": "uint256"
        }
      ],
      "name": "getPurchasedPackageIds",
      "outputs": [
        {
          "internalType": "uint256[]",
          "name": "",
          "type": "uint256[]"
        }
      ],
      "stateMutability": "view",
      "type": "function",
      "constant": true
    },
    {
      "inputs": [],
      "name": "withdrawPoolFund",
      "outputs": [],
      "stateMutability": "nonpayable",
      "type": "function"
    },
    {
      "inputs": [],
      "name": "withdrawETHFund",
      "outputs": [],
      "stateMutability": "nonpayable",
      "type": "function"
    },
    {
      "inputs": [
        {
          "internalType": "contract IERC20",
          "name": "token",
          "type": "address"
        }
      ],
      "name": "withdrawErc20",
      "outputs": [],
      "stateMutability": "nonpayable",
      "type": "function"
    }
  ],
  "bytecode": "0x60e0604052601060a08190526f506f6c6b614272696467653a20494e4f60801b60c090815262000033916002919062000119565b503480156200004157600080fd5b50604051620038be380380620038be8339810160408190526200006491620001bf565b6200007862000072620000c5565b620000c9565b60018055600380546001600160a01b03199081166001600160a01b039485161790915560609190911b6001600160601b031916608052600580549091169290911691909117905562000268565b3390565b600080546001600160a01b038381166001600160a01b0319831681178455604051919092169283917f8be0079c531659141344cd1fd0a4f28419497f9722a3daafe3b4186f6b6457e09190a35050565b828054620001279062000212565b90600052602060002090601f0160209004810192826200014b576000855562000196565b82601f106200016657805160ff191683800117855562000196565b8280016001018555821562000196579182015b828111156200019657825182559160200191906001019062000179565b50620001a4929150620001a8565b5090565b5b80821115620001a45760008155600101620001a9565b600080600060608486031215620001d4578283fd5b8351620001e1816200024f565b6020850151909350620001f4816200024f565b604085015190925062000207816200024f565b809150509250925092565b6002810460018216806200022757607f821691505b602082108114156200024957634e487b7160e01b600052602260045260246000fd5b50919050565b6001600160a01b03811681146200026557600080fd5b50565b60805160601c61361b620002a360003960008181610c3501528181610cbb01528181611493015281816115320152612561015261361b6000f3fe6080604052600436106102085760003560e01c80637023cee011610118578063a6f9dae1116100a0578063c7e42b1b1161006f578063c7e42b1b146105f5578063ce49ff6114610615578063cec2a0b41461062a578063f23a6e611461064a578063f2fde38b1461066a5761020f565b8063a6f9dae114610580578063ad5c4648146105a0578063b39d9009146105b5578063bc197c81146105d55761020f565b80638042c3f2116100e75780638042c3f2146104d15780638583e823146104fe5780638da5cb5b1461051e5780639c13180614610540578063a571d18c146105605761020f565b80637023cee01461045c578063715018a61461047c578063753969da14610491578063795d121c146104b15761020f565b80631a1d69ec1161019b5780634b25bfce1161016a5780634b25bfce146103a757806353ffa299146103da5780635729bd4c146103ef57806364e4ffb41461040f57806364ee07761461043c5761020f565b80631a1d69ec146103305780631f4552cb146103505780631faee868146103655780632f380b351461037a5761020f565b806308405e74116101d757806308405e74146102a35780630ac2d472146102c35780630f4d0357146102e3578063150b7a02146103035761020f565b806301ffc9a71461021457806306fdde031461024a578063081e3eda1461026c578063083d7de21461028e5761020f565b3661020f57005b600080fd5b34801561022057600080fd5b5061023461022f366004612e0a565b61068a565b6040516102419190613062565b60405180910390f35b34801561025657600080fd5b5061025f6106a3565b6040516102419190613082565b34801561027857600080fd5b50610281610731565b6040516102419190613449565b6102a161029c366004612e91565b610737565b005b3480156102af57600080fd5b506102a16102be366004612d0e565b610d62565b3480156102cf57600080fd5b506102a16102de366004612f5f565b610ebb565b3480156102ef57600080fd5b506102a16102fe366004612e32565b61107f565b34801561030f57600080fd5b5061032361031e366004612c12565b61119e565b604051610241919061306d565b34801561033c57600080fd5b506102a161034b366004612d4f565b6111ae565b34801561035c57600080fd5b506102a161143a565b34801561037157600080fd5b506102816115d7565b34801561038657600080fd5b5061039a610395366004612e32565b6115dd565b6040516102419190613300565b3480156103b357600080fd5b506103c76103c2366004612e62565b611708565b6040516102419796959493929190613452565b3480156103e657600080fd5b506102a1611753565b3480156103fb57600080fd5b506102a161040a366004612e32565b6117ea565b34801561041b57600080fd5b5061042f61042a366004612e32565b611928565b60405161024191906133b1565b34801561044857600080fd5b50610281610457366004612e32565b611a1e565b34801561046857600080fd5b506102a1610477366004612ee3565b611aac565b34801561048857600080fd5b506102a1611bf1565b34801561049d57600080fd5b506102a16104ac366004612eb2565b611c3c565b3480156104bd57600080fd5b506102a16104cc366004612e32565b611de2565b3480156104dd57600080fd5b506104f16104ec366004612ce3565b61216b565b604051610241919061304f565b34801561050a57600080fd5b50610281610519366004612e32565b6121e3565b34801561052a57600080fd5b5061053361222e565b6040516102419190612fea565b34801561054c57600080fd5b5061023461055b366004612ce3565b61223d565b34801561056c57600080fd5b506102a161057b366004612f1d565b612338565b34801561058c57600080fd5b506102a161059b366004612b4c565b6124fe565b3480156105ac57600080fd5b5061053361255f565b3480156105c157600080fd5b506102a16105d0366004612ce3565b612583565b3480156105e157600080fd5b506103236105f0366004612b68565b6126de565b34801561060157600080fd5b506102a1610610366004612b4c565b6126ef565b34801561062157600080fd5b506105336127e9565b34801561063657600080fd5b50610234610645366004612e62565b6127f8565b34801561065657600080fd5b50610323610665366004612c7c565b612818565b34801561067657600080fd5b506102a1610685366004612b4c565b612829565b6001600160e01b031981166301ffc9a760e01b14919050565b600280546106b090613540565b80601f01602080910402602001604051908101604052809291908181526020018280546106dc90613540565b80156107295780601f106106fe57610100808354040283529160200191610729565b820191906000526020600020905b81548152906001019060200180831161070c57829003601f168201915b505050505081565b60095490565b600260015414156107635760405162461bcd60e51b815260040161075a9061327d565b60405180910390fd5b6002600190815560009061077890849061289a565b90506000600a828154811061079d57634e487b7160e01b600052603260045260246000fd5b906000526020600020906007020160010154905060006107c760018361289a90919063ffffffff16565b9050600981815481106107ea57634e487b7160e01b600052603260045260246000fd5b600091825260209091206009600b90920201015460ff1661081d5760405162461bcd60e51b815260040161075a906132da565b6009818154811061083e57634e487b7160e01b600052603260045260246000fd5b90600052602060002090600b020160010154421015801561089157506009818154811061087b57634e487b7160e01b600052603260045260246000fd5b90600052602060002090600b0201600201544211155b6108ad5760405162461bcd60e51b815260040161075a906132b4565b600981815481106108ce57634e487b7160e01b600052603260045260246000fd5b90600052602060002090600b0201600301546002141561090e576108f2338361223d565b61090e5760405162461bcd60e51b815260040161075a90613230565b6000349050600061096c670de0b6b3a7640000610966600a888154811061094557634e487b7160e01b600052603260045260246000fd5b906000526020600020906007020160050154856128a690919063ffffffff16565b906128b2565b90508581101561098e5760405162461bcd60e51b815260040161075a906131de565b600086821115610a07576109fa670de0b6b3a76400006109f46109ed600a8a815481106109cb57634e487b7160e01b600052603260045260246000fd5b90600052602060002090600702016005015460016128b290919063ffffffff16565b8a906128a6565b906128a6565b610a049084613529565b90505b6000610a1289611a1e565b9050600a8781548110610a3557634e487b7160e01b600052603260045260246000fd5b9060005260206000209060070201600301548111610a655760405162461bcd60e51b815260040161075a9061320a565b87811015610a855760405162461bcd60e51b815260040161075a9061320a565b6000898152600660209081526040808320338452909152902060050154610aac90856128be565b60008a815260066020818152604080842033855290915290912060058101929092550154610ada90896128be565b60008a81526006602081815260408084203380865290835281852093840195909555426003909301929092558c83526007815281832093835292909252205460ff16610bb857600a8781548110610b4157634e487b7160e01b600052603260045260246000fd5b60009182526020808320600792830201600601805460018082018355918552828520018054336001600160a01b031990911681179091558d85528383526040808620918652908352808520805460ff191683179055600883528085208b865283528420909201805492830181558352909120018990555b610bfd88600a8981548110610bdd57634e487b7160e01b600052603260045260246000fd5b9060005260206000209060070201600201546128be90919063ffffffff16565b600a8881548110610c1e57634e487b7160e01b600052603260045260246000fd5b9060005260206000209060070201600201819055507f00000000000000000000000000000000000000000000000000000000000000006001600160a01b031663d0e30db0856040518263ffffffff1660e01b81526004016000604051808303818588803b158015610c8e57600080fd5b505af1158015610ca2573d6000803e3d6000fd5b5050604051632e1a7d4d60e01b81526001600160a01b037f0000000000000000000000000000000000000000000000000000000000000000169350632e1a7d4d9250610cf391508590600401613449565b600060405180830381600087803b158015610d0d57600080fd5b505af1158015610d21573d6000803e3d6000fd5b505060405133925084156108fc02915084906000818181858888f19350505050158015610d52573d6000803e3d6000fd5b5050600180555050505050505050565b610d6a6128ca565b6001600160a01b0316610d7b61222e565b6001600160a01b031614610da15760405162461bcd60e51b815260040161075a906131a9565b6000610dae83600161289a565b9050600060098281548110610dd357634e487b7160e01b600052603260045260246000fd5b90600052602060002090600b0201600a01805480602002602001604051908101604052809291908181526020018280548015610e2e57602002820191906000526020600020905b815481526020019060010190808311610e1a575b505083519394506000925050505b81811015610eb2576000838281518110610e6657634e487b7160e01b600052603260045260246000fd5b60209081029190910181015160009081526006825260408082206001600160a01b038c16835290925220600101805460ff19168715151790555080610eaa8161357b565b915050610e3c565b50505050505050565b610ec36128ca565b6001600160a01b0316610ed461222e565b6001600160a01b031614610efa5760405162461bcd60e51b815260040161075a906131a9565b6000610f0788600161289a565b90508160098281548110610f2b57634e487b7160e01b600052603260045260246000fd5b600091825260209091206008600b9092020101558615610f7d578660098281548110610f6757634e487b7160e01b600052603260045260246000fd5b90600052602060002090600b0201600101819055505b8515610fbb578560098281548110610fa557634e487b7160e01b600052603260045260246000fd5b90600052602060002090600b0201600201819055505b8415610ff9578460098281548110610fe357634e487b7160e01b600052603260045260246000fd5b90600052602060002090600b0201600301819055505b831561103757836009828154811061102157634e487b7160e01b600052603260045260246000fd5b90600052602060002090600b0201600401819055505b821561107557826009828154811061105f57634e487b7160e01b600052603260045260246000fd5b90600052602060002090600b0201600501819055505b5050505050505050565b6110876128ca565b6001600160a01b031661109861222e565b6001600160a01b0316146110be5760405162461bcd60e51b815260040161075a906131a9565b60006110cb82600161289a565b90506000600982815481106110f057634e487b7160e01b600052603260045260246000fd5b90600052602060002090600b020160090160006101000a81548160ff02191690831515021790555060016009828154811061113b57634e487b7160e01b600052603260045260246000fd5b90600052602060002090600b020160090160016101000a81548160ff021916908315150217905550426009828154811061118557634e487b7160e01b600052603260045260246000fd5b90600052602060002090600b0201600701819055505050565b630a85bd0160e11b949350505050565b6111b66128ca565b6001600160a01b03166111c761222e565b6001600160a01b0316146111ed5760405162461bcd60e51b815260040161075a906131a9565b60006111fa82600161289a565b905060006009828154811061121f57634e487b7160e01b600052603260045260246000fd5b90600052602060002090600b0201600a0180548060200260200160405190810160405280929190818152602001828054801561127a57602002820191906000526020600020905b815481526020019060010190808311611266575b505083519394506000925050505b85518110156114325760005b8281101561141f5760008482815181106112be57634e487b7160e01b600052603260045260246000fd5b60200260200101519050866006600083815260200190815260200160002060008a86815181106112fe57634e487b7160e01b600052603260045260246000fd5b60200260200101516001600160a01b03166001600160a01b031681526020019081526020016000206000018190555060016006600083815260200190815260200160002060008a868151811061136457634e487b7160e01b600052603260045260246000fd5b60200260200101516001600160a01b03166001600160a01b0316815260200190815260200160002060010160006101000a81548160ff021916908315150217905550426006600083815260200190815260200160002060008a86815181106113dc57634e487b7160e01b600052603260045260246000fd5b60200260200101516001600160a01b03166001600160a01b03168152602001908152602001600020600201819055505080806114179061357b565b915050611294565b508061142a8161357b565b915050611288565b505050505050565b6114426128ca565b6001600160a01b031661145361222e565b6001600160a01b0316146114795760405162461bcd60e51b815260040161075a906131a9565b6040516370a0823160e01b81526000906001600160a01b037f000000000000000000000000000000000000000000000000000000000000000016906370a08231906114c8903090600401612fea565b60206040518083038186803b1580156114e057600080fd5b505afa1580156114f4573d6000803e3d6000fd5b505050506040513d601f19601f820116820180604052508101906115189190612e4a565b604051632e1a7d4d60e01b81529091506001600160a01b037f00000000000000000000000000000000000000000000000000000000000000001690632e1a7d4d90611567908490600401613449565b600060405180830381600087803b15801561158157600080fd5b505af1158015611595573d6000803e3d6000fd5b50506003546040516001600160a01b03909116925083156108fc02915083906000818181858888f193505050501580156115d3573d6000803e3d6000fd5b5050565b600a5490565b6115e561291e565b60006115f283600161289a565b90506009818154811061161557634e487b7160e01b600052603260045260246000fd5b60009182526020918290206040805161018081018252600b909302909101805483526001810154838501526002810154838301526003810154606084015260048101546080840152600581015460a0840152600681015460c0840152600781015460e0840152600881015461010080850191909152600982015460ff8082161515610120870152919004161515610140840152600a8101805483518187028101870190945280845293949193610160860193928301828280156116f757602002820191906000526020600020905b8154815260200190600101908083116116e3575b505050505081525050915050919050565b600660208181526000938452604080852090915291835291208054600182015460028301546003840154600485015460058601549590960154939560ff938416959294919316919087565b61175b6128ca565b6001600160a01b031661176c61222e565b6001600160a01b0316146117925760405162461bcd60e51b815260040161075a906131a9565b47806117b05760405162461bcd60e51b815260040161075a906130d5565b6003546040516001600160a01b039091169082156108fc029083906000818181858888f193505050501580156115d3573d6000803e3d6000fd5b6117f26128ca565b6001600160a01b031661180361222e565b6001600160a01b0316146118295760405162461bcd60e51b815260040161075a906131a9565b600061183682600161289a565b905060016009828154811061185b57634e487b7160e01b600052603260045260246000fd5b90600052602060002090600b020160090160006101000a81548160ff0219169083151502179055506000600982815481106118a657634e487b7160e01b600052603260045260246000fd5b90600052602060002090600b020160090160016101000a81548160ff02191690831515021790555042600982815481106118f057634e487b7160e01b600052603260045260246000fd5b90600052602060002090600b02016006018190555060006009828154811061118557634e487b7160e01b600052603260045260246000fd5b611930612983565b600061193d83600161289a565b9050600a818154811061196057634e487b7160e01b600052603260045260246000fd5b90600052602060002090600702016040518060e0016040529081600082015481526020016001820154815260200160028201548152602001600382015481526020016004820154815260200160058201548152602001600682018054806020026020016040519081016040528092919081815260200182805480156116f757602002820191906000526020600020905b81546001600160a01b031681526001909101906020018083116119f057505050505081525050915050919050565b600080611a2c83600161289a565b9050611aa5600a8281548110611a5257634e487b7160e01b600052603260045260246000fd5b906000526020600020906007020160020154600a8381548110611a8557634e487b7160e01b600052603260045260246000fd5b90600052602060002090600702016004015461289a90919063ffffffff16565b9392505050565b611ab46128ca565b6001600160a01b0316611ac561222e565b6001600160a01b031614611aeb5760405162461bcd60e51b815260040161075a906131a9565b6000611af886600161289a565b905084600a8281548110611b1c57634e487b7160e01b600052603260045260246000fd5b60009182526020909120600160079092020101558315611b6e5783600a8281548110611b5857634e487b7160e01b600052603260045260246000fd5b9060005260206000209060070201600301819055505b8215611bac5782600a8281548110611b9657634e487b7160e01b600052603260045260246000fd5b9060005260206000209060070201600401819055505b81156114325781600a8281548110611bd457634e487b7160e01b600052603260045260246000fd5b906000526020600020906007020160050181905550505050505050565b611bf96128ca565b6001600160a01b0316611c0a61222e565b6001600160a01b031614611c305760405162461bcd60e51b815260040161075a906131a9565b611c3a60006128ce565b565b611c446128ca565b6001600160a01b0316611c5561222e565b6001600160a01b031614611c7b5760405162461bcd60e51b815260040161075a906131a9565b600a54600090611c8c9060016128be565b9050600a6040518060e0016040528083815260200187815260200160008152602001868152602001858152602001848152602001600067ffffffffffffffff811115611ce857634e487b7160e01b600052604160045260246000fd5b604051908082528060200260200182016040528015611d11578160200160208202803683370190505b50905281546001818101845560009384526020938490208351600790930201918255838301519082015560408201516002820155606082015160038201556080820151600482015560a0820151600582015560c0820151805192939192611d7e92600685019201906129c0565b5060009150611d90905086600161289a565b905060098181548110611db357634e487b7160e01b600052603260045260246000fd5b60009182526020808320600a600b90930201919091018054600181018255908352912001919091555050505050565b60026001541415611e055760405162461bcd60e51b815260040161075a9061327d565b60026001908155600090611e1a90839061289a565b905060098181548110611e3d57634e487b7160e01b600052603260045260246000fd5b90600052602060002090600b020160080154600114611e6e5760405162461bcd60e51b815260040161075a90613256565b60098181548110611e8f57634e487b7160e01b600052603260045260246000fd5b90600052602060002090600b02016003015460021415611ecf57611eb3338361223d565b611ecf5760405162461bcd60e51b815260040161075a90613230565b611f4660098281548110611ef357634e487b7160e01b600052603260045260246000fd5b90600052602060002090600b02016005015460098381548110611f2657634e487b7160e01b600052603260045260246000fd5b90600052602060002090600b0201600201546128be90919063ffffffff16565b4211611f645760405162461bcd60e51b815260040161075a90613172565b336000908152600860209081526040808320858452825280832060070180548251818502810185019093528083529192909190830182828015611fc657602002820191906000526020600020905b815481526020019060010190808311611fb2575b505050505090506000815190506006600083600081518110611ff857634e487b7160e01b600052603260045260246000fd5b6020908102919091018101518252818101929092526040908101600090812033825290925290206004015460ff16156120435760405162461bcd60e51b815260040161075a906130fe565b60005b8181101561216057600083828151811061207057634e487b7160e01b600052603260045260246000fd5b6020908102919091018101516000818152600783526040808220338352909352919091205490915060ff161561214d57600081815260066020818152604080842033808652925292839020909101546005549251637921219560e11b815290926001600160a01b03169163f242432a916120f291309187908790600401613017565b600060405180830381600087803b15801561210c57600080fd5b505af1158015612120573d6000803e3d6000fd5b50505060008381526006602090815260408083203384529091529020600401805460ff1916600117905550505b50806121588161357b565b915050612046565b505060018055505050565b6001600160a01b03821660009081526008602090815260408083208484528252918290206007018054835181840281018401909452808452606093928301828280156121d657602002820191906000526020600020905b8154815260200190600101908083116121c2575b5050505050905092915050565b6000806121f183600161289a565b9050600a818154811061221457634e487b7160e01b600052603260045260246000fd5b906000526020600020906007020160040154915050919050565b6000546001600160a01b031690565b60008061224b83600161289a565b905060006009828154811061227057634e487b7160e01b600052603260045260246000fd5b90600052602060002090600b0201600a018054806020026020016040519081016040528092919081815260200182805480156122cb57602002820191906000526020600020905b8154815260200190600101908083116122b7575b5050505050905060066000826000815181106122f757634e487b7160e01b600052603260045260246000fd5b602090810291909101810151825281810192909252604090810160009081206001600160a01b038916825290925290206001015460ff169250505092915050565b6123406128ca565b6001600160a01b031661235161222e565b6001600160a01b0316146123775760405162461bcd60e51b815260040161075a906131a9565b600960405180610180016040528061239e60016009805490506128be90919063ffffffff16565b81526020018881526020018781526020018681526020018581526020018481526020016000815260200160008152602001838152602001600115158152602001600015158152602001600067ffffffffffffffff81111561240f57634e487b7160e01b600052604160045260246000fd5b604051908082528060200260200182016040528015612438578160200160208202803683370190505b50905281546001808201845560009384526020938490208351600b90930201918255828401519082015560408201516002820155606082015160038201556080820151600482015560a0820151600582015560c0820151600682015560e0820151600782015561010080830151600883015561012083015160098301805461014086015160ff199091169215159290921761ff0019169115159092021790556101608201518051929391926124f392600a8501920190612a25565b505050505050505050565b6125066128ca565b6001600160a01b031661251761222e565b6001600160a01b03161461253d5760405162461bcd60e51b815260040161075a906131a9565b600380546001600160a01b0319166001600160a01b0392909216919091179055565b7f000000000000000000000000000000000000000000000000000000000000000081565b61258b6128ca565b6001600160a01b031661259c61222e565b6001600160a01b0316146125c25760405162461bcd60e51b815260040161075a906131a9565b60006125cf82600161289a565b90506000600982815481106125f457634e487b7160e01b600052603260045260246000fd5b90600052602060002090600b0201600a0180548060200260200160405190810160405280929190818152602001828054801561264f57602002820191906000526020600020905b81548152602001906001019080831161263b575b505083519394506000925050505b8181101561143257600083828151811061268757634e487b7160e01b600052603260045260246000fd5b60209081029190910181015160009081526006825260408082206001600160a01b038b168352909252208681556001808201805460ff191690911790554260029091015550806126d68161357b565b91505061265d565b63bc197c8160e01b95945050505050565b6003546040516370a0823160e01b81526001600160a01b038084169263a9059cbb9291169083906370a082319061272a903090600401612fea565b60206040518083038186803b15801561274257600080fd5b505afa158015612756573d6000803e3d6000fd5b505050506040513d601f19601f8201168201806040525081019061277a9190612e4a565b6040518363ffffffff1660e01b8152600401612797929190612ffe565b602060405180830381600087803b1580156127b157600080fd5b505af11580156127c5573d6000803e3d6000fd5b505050506040513d601f19601f820116820180604052508101906115d39190612dee565b6005546001600160a01b031681565b600760209081526000928352604080842090915290825290205460ff1681565b63f23a6e6160e01b95945050505050565b6128316128ca565b6001600160a01b031661284261222e565b6001600160a01b0316146128685760405162461bcd60e51b815260040161075a906131a9565b6001600160a01b03811661288e5760405162461bcd60e51b815260040161075a9061312c565b612897816128ce565b50565b6000611aa58284613529565b6000611aa5828461350a565b6000611aa582846134ea565b6000611aa582846134d2565b3390565b600080546001600160a01b038381166001600160a01b0319831681178455604051919092169283917f8be0079c531659141344cd1fd0a4f28419497f9722a3daafe3b4186f6b6457e09190a35050565b604051806101800160405280600081526020016000815260200160008152602001600081526020016000815260200160008152602001600081526020016000815260200160008152602001600015158152602001600015158152602001606081525090565b6040518060e00160405280600081526020016000815260200160008152602001600081526020016000815260200160008152602001606081525090565b828054828255906000526020600020908101928215612a15579160200282015b82811115612a1557825182546001600160a01b0319166001600160a01b039091161782556020909201916001909101906129e0565b50612a21929150612a60565b5090565b828054828255906000526020600020908101928215612a15579160200282015b82811115612a15578251825591602001919060010190612a45565b5b80821115612a215760008155600101612a61565b600082601f830112612a85578081fd5b81356020612a9a612a95836134ae565b613484565b8281528181019085830183850287018401881015612ab6578586fd5b855b85811015612ad457813584529284019290840190600101612ab8565b5090979650505050505050565b600082601f830112612af1578081fd5b813567ffffffffffffffff811115612b0b57612b0b6135ac565b612b1e601f8201601f1916602001613484565b818152846020838601011115612b32578283fd5b816020850160208301379081016020019190915292915050565b600060208284031215612b5d578081fd5b8135611aa5816135c2565b600080600080600060a08688031215612b7f578081fd5b8535612b8a816135c2565b94506020860135612b9a816135c2565b9350604086013567ffffffffffffffff80821115612bb6578283fd5b612bc289838a01612a75565b94506060880135915080821115612bd7578283fd5b612be389838a01612a75565b93506080880135915080821115612bf8578283fd5b50612c0588828901612ae1565b9150509295509295909350565b60008060008060808587031215612c27578384fd5b8435612c32816135c2565b93506020850135612c42816135c2565b925060408501359150606085013567ffffffffffffffff811115612c64578182fd5b612c7087828801612ae1565b91505092959194509250565b600080600080600060a08688031215612c93578081fd5b8535612c9e816135c2565b94506020860135612cae816135c2565b93506040860135925060608601359150608086013567ffffffffffffffff811115612cd7578182fd5b612c0588828901612ae1565b60008060408385031215612cf5578182fd5b8235612d00816135c2565b946020939093013593505050565b600080600060608486031215612d22578283fd5b8335612d2d816135c2565b9250602084013591506040840135612d44816135d7565b809150509250925092565b60008060408385031215612d61578182fd5b823567ffffffffffffffff811115612d77578283fd5b8301601f81018513612d87578283fd5b80356020612d97612a95836134ae565b82815281810190848301838502860184018a1015612db3578788fd5b8795505b84861015612dde578035612dca816135c2565b835260019590950194918301918301612db7565b5098969091013596505050505050565b600060208284031215612dff578081fd5b8151611aa5816135d7565b600060208284031215612e1b578081fd5b81356001600160e01b031981168114611aa5578182fd5b600060208284031215612e43578081fd5b5035919050565b600060208284031215612e5b578081fd5b5051919050565b60008060408385031215612e74578182fd5b823591506020830135612e86816135c2565b809150509250929050565b60008060408385031215612ea3578182fd5b50508035926020909101359150565b60008060008060808587031215612ec7578182fd5b5050823594602084013594506040840135936060013592509050565b600080600080600060a08688031215612efa578283fd5b505083359560208501359550604085013594606081013594506080013592509050565b60008060008060008060c08789031215612f35578384fd5b505084359660208601359650604086013595606081013595506080810135945060a0013592509050565b600080600080600080600060e0888a031215612f79578485fd5b505085359760208701359750604087013596606081013596506080810135955060a0810135945060c0013592509050565b6000815180845260208085019450808401835b83811015612fd957815187529582019590820190600101612fbd565b509495945050505050565b15159052565b6001600160a01b0391909116815260200190565b6001600160a01b03929092168252602082015260400190565b6001600160a01b0394851681529290931660208301526040820152606081019190915260a06080820181905260009082015260c00190565b600060208252611aa56020830184612faa565b901515815260200190565b6001600160e01b031991909116815260200190565b6000602080835283518082850152825b818110156130ae57858101830151858201604001528201613092565b818111156130bf5783604083870101525b50601f01601f1916929092016040019392505050565b6020808252600f908201526e1b9bdd08195b9bdd59da08199d5b99608a1b604082015260600190565b6020808252601490820152731d5cd95c88185b1c9958591e4818db185a5b595960621b604082015260600190565b60208082526026908201527f4f776e61626c653a206e6577206f776e657220697320746865207a65726f206160408201526564647265737360d01b606082015260800190565b6020808252601d908201527f6e6f74206f6e2074696d6520666f7220636c61696d696e67204e465473000000604082015260600190565b6020808252818101527f4f776e61626c653a2063616c6c6572206973206e6f7420746865206f776e6572604082015260600190565b602080825260129082015271696e73756666696369656e742066756e647360701b604082015260600190565b6020808252600c908201526b125393c81cdbdb19081bdd5d60a21b604082015260600190565b6020808252600c908201526b34b73b30b634b2103ab9b2b960a11b604082015260600190565b6020808252600d908201526c696e76616c696420636c61696d60981b604082015260600190565b6020808252601f908201527f5265656e7472616e637947756172643a207265656e7472616e742063616c6c00604082015260600190565b6020808252600c908201526b696e76616c69642074696d6560a01b604082015260600190565b6020808252600c908201526b1a5b9d985b1a59081c1bdbdb60a21b604082015260600190565b60006020825282516020830152602083015160408301526040830151606083015260608301516080830152608083015160a083015260a083015160c083015260c083015160e083015260e083015161010081818501528085015191505061012081818501528085015191505061014061337b81850183612fe4565b840151905061016061338f84820183612fe4565b8401516101808481015290506133a96101a0840182612faa565b949350505050565b6000602080835261010083018451828501528185015160408501526040850151606085015260608501516080850152608085015160a085015260a085015160c085015260c085015160e0808601528181518084526101208701915084830193508592505b8083101561343e5783516001600160a01b03168252928401926001929092019190840190613415565b509695505050505050565b90815260200190565b9687529415156020870152604086019390935260608501919091521515608084015260a083015260c082015260e00190565b60405181810167ffffffffffffffff811182821017156134a6576134a66135ac565b604052919050565b600067ffffffffffffffff8211156134c8576134c86135ac565b5060209081020190565b600082198211156134e5576134e5613596565b500190565b60008261350557634e487b7160e01b81526012600452602481fd5b500490565b600081600019048311821515161561352457613524613596565b500290565b60008282101561353b5761353b613596565b500390565b60028104600182168061355457607f821691505b6020821081141561357557634e487b7160e01b600052602260045260246000fd5b50919050565b600060001982141561358f5761358f613596565b5060010190565b634e487b7160e01b600052601160045260246000fd5b634e487b7160e01b600052604160045260246000fd5b6001600160a01b038116811461289757600080fd5b801515811461289757600080fdfea2646970667358221220dd366f69f47139165c4619f1c39f2ed2f0fce1cd465c5974126d8980f80ebbf464736f6c63430008000033",
  "immutableReferences": {
    "2355": [
      {
        "length": 32,
        "start": 3125
      },
      {
        "length": 32,
        "start": 3259
      },
      {
        "length": 32,
        "start": 5267
      },
      {
        "length": 32,
        "start": 5426
      },
      {
        "length": 32,
        "start": 9569
      }
    ]
  },
  "source": "// SPDX-License-Identifier: MIT\r\npragma solidity ^0.8.0;\r\n\r\nimport \"@openzeppelin/contracts/token/ERC1155/ERC1155.sol\";\r\nimport \"@openzeppelin/contracts/token/ERC1155/IERC1155Receiver.sol\";\r\n// import \"@openzeppelin/contracts/token/ERC1155/IERC1155Receiver.sol\";\r\nimport \"@openzeppelin/contracts/utils/Counters.sol\";\r\nimport \"@openzeppelin/contracts/access/Ownable.sol\";\r\nimport \"@openzeppelin/contracts/utils/math/SafeMath.sol\";\r\nimport \"@openzeppelin/contracts/utils/Strings.sol\";\r\nimport \"./lib/IWETH.sol\";\r\nimport \"./lib/IERC20.sol\";\r\nimport \"./ReentrancyGuard.sol\";\r\nimport \"./PolkaBridgeNFT.sol\";\r\n\r\ncontract PolkaBridgeINO is Ownable, ReentrancyGuard, IERC1155Receiver {\r\n    string public name = \"PolkaBridge: INO\";\r\n    using SafeMath for uint256;\r\n    using Strings for uint256;\r\n    using Counters for Counters.Counter;\r\n    address public immutable WETH;\r\n    address payable Owner;\r\n    // address payable private ReceiveToken;\r\n    Counters.Counter private tokenCounter;\r\n    PolkaBridgeNFT public polkaBridgeNFT;\r\n   \r\n\r\n    constructor(\r\n        // address payable _receiveToken,\r\n        PolkaBridgeNFT _polkaBridgeNFT,\r\n        address payable _owner,\r\n        address _WETH\r\n    ) \r\n    {\r\n        // ReceiveToken = _receiveToken;\r\n        Owner = payable(_owner);\r\n        WETH = _WETH;\r\n\r\n        polkaBridgeNFT = _polkaBridgeNFT;\r\n\r\n\r\n    }\r\n\r\n    receive() external payable {}\r\n\r\n    // Pool for INO\r\n    struct INOPool {\r\n        uint256 Id;\r\n        uint256 Begin;\r\n        uint256 End;\r\n        uint256 Type; // 1:public, 2:private\r\n        uint256 AmountPBRRequire; //must e18,important when init\r\n        uint256 LockDuration; //lock after purchase\r\n        uint256 ActivedDate;\r\n        uint256 StopDate;\r\n        uint256 claimType; // 1: claim in PBR INO, 2: claim in other project\r\n        bool IsActived;\r\n        bool IsStopped;\r\n        uint256[] PackageIds;\r\n    }\r\n    // Package\r\n    struct Package {\r\n        uint256 Id;\r\n        uint256 PoolId;\r\n        uint256 TotalSoldCount;\r\n        uint256 MinimumTokenSoldout;\r\n        uint256 TotalItemCount;\r\n        uint256 RatePerETH; // times 1e18\r\n        address[] UsersPurchased;\r\n    }\r\n    // User\r\n    struct User {\r\n        uint256 Id;\r\n        bool IsWhitelist;\r\n        uint256 WhitelistDate;\r\n        uint256 PurchaseTime;\r\n        bool IsClaimed;\r\n        uint256 TotalETHPurchase;\r\n        uint256 PurchasedItemCount;\r\n        uint256[] PurchasedPackageIds;\r\n    }\r\n    mapping(uint256 => mapping(address => User)) public whitelist; // (packageId, userId) -> listuser\r\n    mapping(uint256 => mapping(address => bool)) public purchasecheck; // (packageId, userId) -> purchasecheck\r\n    mapping(address => mapping(uint256 => User)) private users; // (userId, poolId) -> user\r\n    INOPool[] pools;\r\n    Package[] packages;\r\n\r\n    // function setURI(string memory uri_) external onlyOwner {\r\n    //     _setURI(uri_);\r\n    // }\r\n    function changeOwner(address payable _owner) external onlyOwner {\r\n        Owner = payable(_owner);\r\n    }\r\n\r\n    // function setURI(string memory _uri) external onlyOwner {\r\n    //     polkaBridgeNFT.setURI(_uri);\r\n    // }\r\n\r\n    // function getURI(uint256 _id) external view returns(string memory) {\r\n    //     return polkaBridgeNFT.uri(_id);\r\n    // }\r\n\r\n    function poolLength() external view returns (uint256) {\r\n        return pools.length;\r\n    }\r\n\r\n    function packageLength() external view returns (uint256) {\r\n        return packages.length;\r\n    }\r\n\r\n    // Add Whitelist function\r\n    function addWhitelist(address user, uint256 pid) public onlyOwner {\r\n        uint256 poolIndex = pid.sub(1);\r\n        uint256[] memory packageIds = pools[poolIndex].PackageIds;\r\n        uint256 packagesLength = packageIds.length;\r\n        for (uint256 i = 0; i < packagesLength; i++) {\r\n            uint256 packageId = packageIds[i];\r\n            whitelist[packageId][user].Id = pid;\r\n            whitelist[packageId][user].IsWhitelist = true;\r\n            whitelist[packageId][user].WhitelistDate = block.timestamp;\r\n        }\r\n    }\r\n\r\n    // Add Multiple Whitelist function\r\n    function addMulWhitelist(address[] memory user, uint256 pid)\r\n        public\r\n        onlyOwner\r\n    {\r\n        uint256 poolIndex = pid.sub(1);\r\n        uint256[] memory packageIds = pools[poolIndex].PackageIds;\r\n        uint256 packagesLength = packageIds.length;\r\n        for (uint256 i = 0; i < user.length; i++) {\r\n            for (uint256 j = 0; j < packagesLength; j++) {\r\n                uint256 packageId = packageIds[j];\r\n                whitelist[packageId][user[i]].Id = pid;\r\n                whitelist[packageId][user[i]].IsWhitelist = true;\r\n                whitelist[packageId][user[i]].WhitelistDate = block.timestamp;\r\n            }\r\n        }\r\n    }\r\n\r\n    // Update existing user whitelist condition\r\n    function updateWhitelist(\r\n        address user,\r\n        uint256 pid,\r\n        bool isWhitelist\r\n    ) public onlyOwner {\r\n        uint256 poolIndex = pid.sub(1);\r\n        uint256[] memory packageIds = pools[poolIndex].PackageIds;\r\n        uint256 packagesLength = packageIds.length;\r\n        for (uint256 i = 0; i < packagesLength; i++) {\r\n            uint256 packageId = packageIds[i];\r\n            whitelist[packageId][user].IsWhitelist = isWhitelist;\r\n        }\r\n    }\r\n\r\n    // Check if user IsWhitelist\r\n    function IsWhitelist(address user, uint256 pid) public view returns (bool) {\r\n        uint256 poolIndex = pid.sub(1);\r\n        uint256[] memory packageIds = pools[poolIndex].PackageIds;\r\n        return whitelist[packageIds[0]][user].IsWhitelist;\r\n    }\r\n\r\n    //Add package to pool\r\n    function addPackageToPool(\r\n        uint256 _PoolId,\r\n        uint256 _MinimumTokenSoldout,\r\n        uint256 _TotalItemCount,\r\n        uint256 _RatePerETH\r\n    ) public onlyOwner {\r\n        uint256 id = packages.length.add(1);\r\n        packages.push(\r\n            Package({\r\n                Id: id,\r\n                PoolId: _PoolId,\r\n                TotalSoldCount: 0,\r\n                MinimumTokenSoldout: _MinimumTokenSoldout,\r\n                TotalItemCount: _TotalItemCount,\r\n                RatePerETH: _RatePerETH,\r\n                UsersPurchased: new address[](0)\r\n            })\r\n        );\r\n        uint256 poolIndex = _PoolId.sub(1);\r\n        pools[poolIndex].PackageIds.push(id);\r\n    }\r\n\r\n    //Add Pool\r\n    function addPool(\r\n        uint256 _Begin,\r\n        uint256 _End,\r\n        uint256 _Type, //1:public, 2:private\r\n        uint256 _AmountPBRRequire, //must e18,important when init\r\n        uint256 _LockDuration, //lock after purchase\r\n        uint256 _claimType\r\n    ) public onlyOwner {\r\n        pools.push(\r\n            INOPool({\r\n                Id: pools.length.add(1),\r\n                Begin: _Begin,\r\n                End: _End,\r\n                Type: _Type, //1:public, 2:private\r\n                AmountPBRRequire: _AmountPBRRequire, //must e18,important when init\r\n                LockDuration: _LockDuration, //lock after purchase\r\n                ActivedDate: 0,\r\n                StopDate: 0,\r\n                IsActived: true,\r\n                IsStopped: false,\r\n                claimType: _claimType,\r\n                PackageIds: new uint256[](0)\r\n            })\r\n        );\r\n    }\r\n\r\n    // Update the pool\r\n    function updatePool(\r\n        uint256 pid,\r\n        uint256 _Begin,\r\n        uint256 _End,\r\n        uint256 _Type,\r\n        uint256 _AmountPBRRequire,\r\n        uint256 _LockDuration,\r\n        uint256 _claimType\r\n    ) public onlyOwner {\r\n        // require(_claimType == 1 || _claimType == 2, \"invalid claim type\");\r\n        uint256 poolIndex = pid.sub(1);\r\n        pools[poolIndex].claimType = _claimType;\r\n        if (_Begin > 0) {\r\n            pools[poolIndex].Begin = _Begin;\r\n        }\r\n        if (_End > 0) {\r\n            pools[poolIndex].End = _End;\r\n        }\r\n        if (_Type > 0) {\r\n            pools[poolIndex].Type = _Type;\r\n        }\r\n        if (_AmountPBRRequire > 0) {\r\n            pools[poolIndex].AmountPBRRequire = _AmountPBRRequire;\r\n        }\r\n        if (_LockDuration > 0) {\r\n            pools[poolIndex].LockDuration = _LockDuration;\r\n        }\r\n    }\r\n\r\n    // Stopping the pool\r\n    function stopPool(uint256 pid) public onlyOwner {\r\n        uint256 poolIndex = pid.sub(1);\r\n        pools[poolIndex].IsActived = false;\r\n        pools[poolIndex].IsStopped = true;\r\n        pools[poolIndex].StopDate = block.timestamp;\r\n    }\r\n\r\n    // Activating the pool\r\n    function activePool(uint256 pid) public onlyOwner {\r\n        uint256 poolIndex = pid.sub(1);\r\n        pools[poolIndex].IsActived = true;\r\n        pools[poolIndex].IsStopped = false;\r\n        pools[poolIndex].ActivedDate = block.timestamp;\r\n        pools[poolIndex].StopDate = 0;\r\n    }\r\n\r\n    //Update package\r\n    function updatePackage(\r\n        uint256 _PackageId,\r\n        uint256 _PoolId,\r\n        uint256 _MinimumTokenSoldout,\r\n        uint256 _TotalItemCount,\r\n        uint256 _RatePerETH\r\n    ) public onlyOwner {\r\n        uint256 packageIndex = _PackageId.sub(1);\r\n        packages[packageIndex].PoolId = _PoolId;\r\n        if (_MinimumTokenSoldout > 0) {\r\n            packages[packageIndex].MinimumTokenSoldout = _MinimumTokenSoldout;\r\n        }\r\n        if (_TotalItemCount > 0) {\r\n            packages[packageIndex].TotalItemCount = _TotalItemCount;\r\n        }\r\n        if (_RatePerETH > 0) {\r\n            packages[packageIndex].RatePerETH = _RatePerETH;\r\n        }\r\n    }\r\n\r\n    function getBalanceItemByPackageId(uint256 packageId)\r\n        public\r\n        view\r\n        returns (uint256)\r\n    {\r\n        uint256 packageIndex = packageId.sub(1);\r\n        return packages[packageIndex].TotalItemCount;\r\n    }\r\n\r\n    function getRemainINOToken(uint256 packageId)\r\n        public\r\n        view\r\n        returns (uint256)\r\n    {\r\n        uint256 packageIndex = packageId.sub(1);\r\n        return\r\n            packages[packageIndex].TotalItemCount.sub(\r\n                packages[packageIndex].TotalSoldCount\r\n            );\r\n    }\r\n\r\n    // To Do: Purchase function\r\n    function purchaseINO(uint256 packageId, uint256 quantity)\r\n        public\r\n        payable\r\n        nonReentrant\r\n    {\r\n        uint256 packageIndex = packageId.sub(1);\r\n        uint256 poolId = packages[packageIndex].PoolId;\r\n        uint256 poolIndex = poolId.sub(1);\r\n        require(pools[poolIndex].IsActived, \"invalid pool\");\r\n        require(\r\n            block.timestamp >= pools[poolIndex].Begin &&\r\n                block.timestamp <= pools[poolIndex].End,\r\n            \"invalid time\"\r\n        );\r\n        // check user\r\n        if (pools[poolIndex].Type == 2)\r\n            //private\r\n            require(IsWhitelist(msg.sender, poolId), \"invalid user\");\r\n        // check eth\r\n        uint256 ethAmount = msg.value;\r\n        uint256 calcItemAmount = ethAmount\r\n            .mul(packages[packageIndex].RatePerETH)\r\n            .div(1e18);\r\n        require(calcItemAmount >= quantity, \"insufficient funds\");\r\n        uint256 restETH;\r\n        if (calcItemAmount > quantity)\r\n            restETH =\r\n                ethAmount -\r\n                quantity\r\n                    .mul(uint256(1).div(packages[packageIndex].RatePerETH))\r\n                    .mul(1e18);\r\n        // check remained token\r\n        uint256 remainToken = getRemainINOToken(packageId);\r\n        require(\r\n            remainToken > packages[packageIndex].MinimumTokenSoldout,\r\n            \"INO sold out\"\r\n        );\r\n        require(remainToken >= quantity, \"INO sold out\");\r\n        whitelist[packageId][msg.sender].TotalETHPurchase = whitelist[\r\n            packageId\r\n        ][msg.sender].TotalETHPurchase.add(ethAmount);\r\n        whitelist[packageId][msg.sender].PurchasedItemCount = whitelist[\r\n            packageId\r\n        ][msg.sender].PurchasedItemCount.add(quantity);\r\n        whitelist[packageId][msg.sender].PurchaseTime = block.timestamp;\r\n        if (!purchasecheck[packageId][msg.sender]) {\r\n            packages[packageIndex].UsersPurchased.push(msg.sender);\r\n            purchasecheck[packageId][msg.sender] = true;\r\n            users[msg.sender][poolId].PurchasedPackageIds.push(packageId);\r\n        }\r\n        packages[packageIndex].TotalSoldCount = packages[packageIndex]\r\n            .TotalSoldCount\r\n            .add(quantity);\r\n        IWETH(WETH).deposit{value: ethAmount}();\r\n        IWETH(WETH).withdraw(restETH);\r\n        payable(msg.sender).transfer(restETH);\r\n    }\r\n\r\n    // To Do: Claim Pool\r\n    function claimPool(uint256 pid) public nonReentrant {\r\n        uint256 poolIndex = pid.sub(1);\r\n        //check user\r\n        require(pools[poolIndex].claimType == 1, \"invalid claim\");\r\n        if (pools[poolIndex].Type == 2)\r\n            //private\r\n            require(IsWhitelist(msg.sender, pid), \"invalid user\");\r\n        require(\r\n            block.timestamp >\r\n                pools[poolIndex].End.add(pools[poolIndex].LockDuration),\r\n            \"not on time for claiming NFTs\"\r\n        );\r\n        uint256[] memory packageIds = users[msg.sender][pid]\r\n            .PurchasedPackageIds;\r\n        uint256 packagesLength = packageIds.length;\r\n        require(\r\n            !whitelist[packageIds[0]][msg.sender].IsClaimed,\r\n            \"user already claimed\"\r\n        );\r\n        for (uint256 i = 0; i < packagesLength; i++) {\r\n            uint256 packageId = packageIds[i];\r\n            if (purchasecheck[packageId][msg.sender]) {\r\n                uint256 itemCount = whitelist[packageId][msg.sender]\r\n                    .PurchasedItemCount;\r\n                // _mint(msg.sender, packageId, itemCount, '');\r\n                // polkaBridgeNFT.mintNFT(msg.sender, packageId, itemCount);\r\n                IERC1155(polkaBridgeNFT).safeTransferFrom(\r\n                    address(this),\r\n                    msg.sender,\r\n                    packageId,\r\n                    itemCount,\r\n                    \"\"\r\n                );\r\n                whitelist[packageId][msg.sender].IsClaimed = true;\r\n            }\r\n        }\r\n    }\r\n\r\n    function onERC1155Received(\r\n        address,\r\n        address,\r\n        uint256,\r\n        uint256,\r\n        bytes memory\r\n    ) public virtual override returns (bytes4) {\r\n        return this.onERC1155Received.selector;\r\n    }\r\n\r\n    function onERC1155BatchReceived(\r\n        address,\r\n        address,\r\n        uint256[] memory,\r\n        uint256[] memory,\r\n        bytes memory\r\n    ) public virtual override returns (bytes4) {\r\n        return this.onERC1155BatchReceived.selector;\r\n    }\r\n\r\n    function onERC721Received(\r\n        address,\r\n        address,\r\n        uint256,\r\n        bytes memory\r\n    ) public virtual returns (bytes4) {\r\n        return this.onERC721Received.selector;\r\n    }\r\n\r\n    function supportsInterface(bytes4 interfaceId)\r\n        external\r\n        pure\r\n        override\r\n        returns (bool)\r\n    {\r\n        return interfaceId == this.supportsInterface.selector;\r\n    }\r\n\r\n    function getPoolInfo(uint256 pid)\r\n        public\r\n        view\r\n        returns (INOPool memory retSt)\r\n    {\r\n        uint256 poolIndex = pid.sub(1);\r\n        return pools[poolIndex];\r\n    }\r\n\r\n    function getPackageInfo(uint256 packageId)\r\n        public\r\n        view\r\n        returns (Package memory retSt)\r\n    {\r\n        uint256 packageIndex = packageId.sub(1);\r\n        return packages[packageIndex];\r\n    }\r\n\r\n    function getPurchasedPackageIds(address user_, uint256 pid)\r\n        public\r\n        view\r\n        returns (uint256[] memory)\r\n    {\r\n        return users[user_][pid].PurchasedPackageIds;\r\n    }\r\n\r\n    //withdraw ETH after INO\r\n    function withdrawPoolFund() public onlyOwner {\r\n        uint256 ETHbalance = IERC20(WETH).balanceOf(address(this));\r\n        // IWETH(WETH).transfer(Owner, ETHbalance);\r\n        IWETH(WETH).withdraw(ETHbalance);\r\n        Owner.transfer(ETHbalance);\r\n    }\r\n\r\n    //withdraw ETH after IDO\r\n    function withdrawETHFund() public onlyOwner {\r\n        uint256 balance = address(this).balance;\r\n        require(balance > 0, \"not enough fund\");\r\n        Owner.transfer(balance);\r\n    }\r\n\r\n    function withdrawErc20(IERC20 token) public {\r\n        token.transfer(Owner, token.balanceOf(address(this)));\r\n    }\r\n}\r\n",
  "sourcePath": "C:\\Users\\Thanh Phi\\Desktop\\PolkaBridgeSolution\\polkabridge-ino\\INO\\contracts\\PolkaBridgeINO.sol",
  "compiler": {
    "name": "solc",
    "version": "0.8.0+commit.c7dfd78e.Emscripten.clang"
  },
  "schemaVersion": "3.4.5",
  "updatedAt": "2022-03-22T07:59:41.286Z",
  "networkType": "ethereum",
  "devdoc": {
    "kind": "dev",
    "methods": {
      "owner()": {
        "details": "Returns the address of the current owner."
      },
      "renounceOwnership()": {
        "details": "Leaves the contract without owner. It will not be possible to call `onlyOwner` functions anymore. Can only be called by the current owner. NOTE: Renouncing ownership will leave the contract without an owner, thereby removing any functionality that is only available to the owner."
      },
      "supportsInterface(bytes4)": {
        "details": "Returns true if this contract implements the interface defined by `interfaceId`. See the corresponding https://eips.ethereum.org/EIPS/eip-165#how-interfaces-are-identified[EIP section] to learn more about how these ids are created. This function call must use less than 30 000 gas."
      },
      "transferOwnership(address)": {
        "details": "Transfers ownership of the contract to a new account (`newOwner`). Can only be called by the current owner."
      }
    },
    "version": 1
  },
  "userdoc": {
    "kind": "user",
    "methods": {},
    "version": 1
  }
}